{
  "contractName": "Distributer",
  "abi": [
    {
      "inputs": [],
      "stateMutability": "nonpayable",
      "type": "constructor"
    },
    {
      "anonymous": false,
      "inputs": [
        {
          "indexed": true,
          "internalType": "address",
          "name": "previousOwner",
          "type": "address"
        },
        {
          "indexed": true,
          "internalType": "address",
          "name": "newOwner",
          "type": "address"
        }
      ],
      "name": "OwnershipTransferred",
      "type": "event"
    },
    {
      "inputs": [],
      "name": "employeesTotalSupply",
      "outputs": [
        {
          "internalType": "uint256",
          "name": "",
          "type": "uint256"
        }
      ],
      "stateMutability": "view",
      "type": "function"
    },
    {
      "inputs": [],
      "name": "fastToken",
      "outputs": [
        {
          "internalType": "contract FastToken",
          "name": "",
          "type": "address"
        }
      ],
      "stateMutability": "view",
      "type": "function"
    },
    {
      "inputs": [],
      "name": "foundersTotalSupply",
      "outputs": [
        {
          "internalType": "uint256",
          "name": "",
          "type": "uint256"
        }
      ],
      "stateMutability": "view",
      "type": "function"
    },
    {
      "inputs": [],
      "name": "owner",
      "outputs": [
        {
          "internalType": "address",
          "name": "",
          "type": "address"
        }
      ],
      "stateMutability": "view",
      "type": "function"
    },
    {
      "inputs": [
        {
          "internalType": "address",
          "name": "",
          "type": "address"
        }
      ],
      "name": "owners",
      "outputs": [
        {
          "internalType": "enum Distributer.OwnerType",
          "name": "ownerType",
          "type": "uint8"
        },
        {
          "internalType": "uint256",
          "name": "totalAmount",
          "type": "uint256"
        },
        {
          "internalType": "uint256",
          "name": "monthsClaimed",
          "type": "uint256"
        },
        {
          "internalType": "uint256",
          "name": "allocationTime",
          "type": "uint256"
        }
      ],
      "stateMutability": "view",
      "type": "function"
    },
    {
      "inputs": [],
      "name": "renounceOwnership",
      "outputs": [],
      "stateMutability": "nonpayable",
      "type": "function"
    },
    {
      "inputs": [],
      "name": "soldTokensTotalSupply",
      "outputs": [
        {
          "internalType": "uint256",
          "name": "",
          "type": "uint256"
        }
      ],
      "stateMutability": "view",
      "type": "function"
    },
    {
      "inputs": [
        {
          "internalType": "address",
          "name": "newOwner",
          "type": "address"
        }
      ],
      "name": "transferOwnership",
      "outputs": [],
      "stateMutability": "nonpayable",
      "type": "function"
    },
    {
      "inputs": [
        {
          "internalType": "address",
          "name": "founder_",
          "type": "address"
        },
        {
          "internalType": "uint256",
          "name": "amount_",
          "type": "uint256"
        }
      ],
      "name": "addFounder",
      "outputs": [],
      "stateMutability": "nonpayable",
      "type": "function"
    },
    {
      "inputs": [
        {
          "internalType": "address",
          "name": "employee_",
          "type": "address"
        },
        {
          "internalType": "uint256",
          "name": "amount_",
          "type": "uint256"
        }
      ],
      "name": "addEmployee",
      "outputs": [],
      "stateMutability": "nonpayable",
      "type": "function"
    },
    {
      "inputs": [
        {
          "internalType": "address",
          "name": "buyer_",
          "type": "address"
        },
        {
          "internalType": "uint256",
          "name": "amount_",
          "type": "uint256"
        }
      ],
      "name": "soldTokensManagement",
      "outputs": [],
      "stateMutability": "nonpayable",
      "type": "function"
    },
    {
      "inputs": [],
      "name": "claim",
      "outputs": [],
      "stateMutability": "nonpayable",
      "type": "function"
    },
    {
      "inputs": [],
      "name": "claims",
      "outputs": [],
      "stateMutability": "nonpayable",
      "type": "function"
    }
  ],
  "bytecode": "0x60806040523480156200001157600080fd5b50620000446200002f6200020d640100000000026401000000009004565b62000215640100000000026401000000009004565b6040516200005290620002d9565b604051809103906000f0801580156200006f573d6000803e3d6000fd5b50600460006101000a81548173ffffffffffffffffffffffffffffffffffffffff021916908373ffffffffffffffffffffffffffffffffffffffff1602179055506954b40b1f852bda000000600181905550692a5a058fc295ed0000006002819055506954b40b1f852bda000000600381905550600354600254600154620000f8919062000320565b62000104919062000320565b600460009054906101000a900473ffffffffffffffffffffffffffffffffffffffff1673ffffffffffffffffffffffffffffffffffffffff166318160ddd6040518163ffffffff167c010000000000000000000000000000000000000000000000000000000002815260040160206040518083038186803b1580156200018957600080fd5b505afa1580156200019e573d6000803e3d6000fd5b505050506040513d601f19601f82011682018060405250810190620001c49190620003b3565b1462000207576040517f08c379a0000000000000000000000000000000000000000000000000000000008152600401620001fe9062000446565b60405180910390fd5b62000468565b600033905090565b60008060009054906101000a900473ffffffffffffffffffffffffffffffffffffffff169050816000806101000a81548173ffffffffffffffffffffffffffffffffffffffff021916908373ffffffffffffffffffffffffffffffffffffffff1602179055508173ffffffffffffffffffffffffffffffffffffffff168173ffffffffffffffffffffffffffffffffffffffff167f8be0079c531659141344cd1fd0a4f28419497f9722a3daafe3b4186f6b6457e060405160405180910390a35050565b61176380620026ac83390190565b6000819050919050565b7f4e487b7100000000000000000000000000000000000000000000000000000000600052601160045260246000fd5b60006200032d82620002e7565b91506200033a83620002e7565b9250827fffffffffffffffffffffffffffffffffffffffffffffffffffffffffffffffff03821115620003725762000371620002f1565b5b828201905092915050565b600080fd5b6200038d81620002e7565b81146200039957600080fd5b50565b600081519050620003ad8162000382565b92915050565b600060208284031215620003cc57620003cb6200037d565b5b6000620003dc848285016200039c565b91505092915050565b600082825260208201905092915050565b7f646f6573206e6f74206d6174636820746f74616c20737570706c790000000000600082015250565b60006200042e601b83620003e5565b91506200043b82620003f6565b602082019050919050565b6000602082019050818103600083015262000461816200041f565b9050919050565b61223480620004786000396000f3fe608060405234801561001057600080fd5b50600436106100ec576000357c010000000000000000000000000000000000000000000000000000000090048063c3d90d0d116100a9578063e7fd9a1311610083578063e7fd9a13146101d4578063e924c5fd146101f0578063f2fde38b1461020e578063f962fc4f1461022a576100ec565b8063c3d90d0d14610190578063d3208c7a146101ac578063dcc59b6f146101ca576100ec565b8063022914a7146100f15780634e71d92d146101245780635615dbbc1461012e578063715018a61461014c5780638da5cb5b146101565780638fa906b214610174575b600080fd5b61010b600480360381019061010691906117eb565b610248565b60405161011b94939291906118a8565b60405180910390f35b61012c610285565b005b610136610745565b60405161014391906118ed565b60405180910390f35b61015461074b565b005b61015e6107d3565b60405161016b9190611917565b60405180910390f35b61018e6004803603810190610189919061195e565b6107fc565b005b6101aa60048036038101906101a5919061195e565b610b19565b005b6101b4610cc3565b6040516101c191906118ed565b60405180910390f35b6101d2610cc9565b005b6101ee60048036038101906101e9919061195e565b61127c565b005b6101f8611598565b60405161020591906118ed565b60405180910390f35b610228600480360381019061022391906117eb565b61159e565b005b610232611696565b60405161023f91906119fd565b60405180910390f35b60056020528060005260406000206000915090508060000160009054906101000a900460ff16908060010154908060020154908060030154905084565b600560003373ffffffffffffffffffffffffffffffffffffffff1673ffffffffffffffffffffffffffffffffffffffff1681526020019081526020016000206001015460001061030a576040517f08c379a000000000000000000000000000000000000000000000000000000000815260040161030190611a9b565b60405180910390fd5b6000600560003373ffffffffffffffffffffffffffffffffffffffff1673ffffffffffffffffffffffffffffffffffffffff1681526020019081526020016000206040518060800160405290816000820160009054906101000a900460ff16600181111561037b5761037a611818565b5b600181111561038d5761038c611818565b5b8152602001600182015481526020016002820154815260200160038201548152505090506000806001808111156103c7576103c6611818565b5b836000015160018111156103de576103dd611818565b5b141561049e574262ed4e0084606001516103f89190611aea565b11610438576040517f08c379a000000000000000000000000000000000000000000000000000000000815260040161042f90611b8c565b60405180910390fd5b600a83602001516104499190611bdb565b905060016228de808460600151426104619190611c0c565b61046b9190611bdb565b6104759190611aea565b9150600a8360400151836104899190611c0c565b116104945781610497565b600a5b9150610555565b426303c2670084606001516104b39190611aea565b116104f3576040517f08c379a00000000000000000000000000000000000000000000000000000000081526004016104ea90611b8c565b60405180910390fd5b600583602001516105049190611bdb565b905060016228de8084606001514261051c9190611c0c565b6105269190611bdb565b6105309190611aea565b915060058360400151836105449190611c0c565b1161054f5781610552565b60055b91505b8260400151821161059b576040517f08c379a000000000000000000000000000000000000000000000000000000000815260040161059290611cb2565b60405180910390fd5b600460009054906101000a900473ffffffffffffffffffffffffffffffffffffffff1673ffffffffffffffffffffffffffffffffffffffff1663a9059cbb33838660400151866105eb9190611c0c565b6105f59190611cd2565b6040518363ffffffff167c010000000000000000000000000000000000000000000000000000000002815260040161062e929190611d2c565b602060405180830381600087803b15801561064857600080fd5b505af115801561065c573d6000803e3d6000fd5b505050506040513d601f19601f820116820180604052508101906106809190611d8d565b50808261068d9190611cd2565b8360200181815161069e9190611c0c565b915081815250508183604001818152505082600560003373ffffffffffffffffffffffffffffffffffffffff1673ffffffffffffffffffffffffffffffffffffffff16815260200190815260200160002060008201518160000160006101000a81548160ff0219169083600181111561071a57610719611818565b5b0217905550602082015181600101556040820151816002015560608201518160030155905050505050565b60025481565b6107536116bc565b73ffffffffffffffffffffffffffffffffffffffff166107716107d3565b73ffffffffffffffffffffffffffffffffffffffff16146107c7576040517f08c379a00000000000000000000000000000000000000000000000000000000081526004016107be90611e06565b60405180910390fd5b6107d160006116c4565b565b60008060009054906101000a900473ffffffffffffffffffffffffffffffffffffffff16905090565b6108046116bc565b73ffffffffffffffffffffffffffffffffffffffff166108226107d3565b73ffffffffffffffffffffffffffffffffffffffff1614610878576040517f08c379a000000000000000000000000000000000000000000000000000000000815260040161086f90611e06565b60405180910390fd5b6000600560008473ffffffffffffffffffffffffffffffffffffffff1673ffffffffffffffffffffffffffffffffffffffff16815260200190815260200160002060010154146108fd576040517f08c379a00000000000000000000000000000000000000000000000000000000081526004016108f490611e98565b60405180910390fd5b806001541015610942576040517f08c379a000000000000000000000000000000000000000000000000000000000815260040161093990611f2a565b60405180910390fd5b600060405180608001604052806000600181111561096357610962611818565b5b81526020016005846109759190611bdb565b846109809190611c0c565b81526020016000815260200142815250905080600560008573ffffffffffffffffffffffffffffffffffffffff1673ffffffffffffffffffffffffffffffffffffffff16815260200190815260200160002060008201518160000160006101000a81548160ff021916908360018111156109fd576109fc611818565b5b02179055506020820151816001015560408201518160020155606082015181600301559050508160016000828254610a359190611c0c565b92505081905550600460009054906101000a900473ffffffffffffffffffffffffffffffffffffffff1673ffffffffffffffffffffffffffffffffffffffff1663a9059cbb84600585610a889190611bdb565b6040518363ffffffff167c0100000000000000000000000000000000000000000000000000000000028152600401610ac1929190611d2c565b602060405180830381600087803b158015610adb57600080fd5b505af1158015610aef573d6000803e3d6000fd5b505050506040513d601f19601f82011682018060405250810190610b139190611d8d565b50505050565b610b216116bc565b73ffffffffffffffffffffffffffffffffffffffff16610b3f6107d3565b73ffffffffffffffffffffffffffffffffffffffff1614610b95576040517f08c379a0000000000000000000000000000000000000000000000000000000008152600401610b8c90611e06565b60405180910390fd5b600354811115610bda576040517f08c379a0000000000000000000000000000000000000000000000000000000008152600401610bd190611fbc565b60405180910390fd5b600460009054906101000a900473ffffffffffffffffffffffffffffffffffffffff1673ffffffffffffffffffffffffffffffffffffffff1663a9059cbb83836040518363ffffffff167c0100000000000000000000000000000000000000000000000000000000028152600401610c53929190611d2c565b602060405180830381600087803b158015610c6d57600080fd5b505af1158015610c81573d6000803e3d6000fd5b505050506040513d601f19601f82011682018060405250810190610ca59190611d8d565b508060036000828254610cb89190611c0c565b925050819055505050565b60015481565b600560003373ffffffffffffffffffffffffffffffffffffffff1673ffffffffffffffffffffffffffffffffffffffff16815260200190815260200160002060010154600010610d4e576040517f08c379a0000000000000000000000000000000000000000000000000000000008152600401610d4590611a9b565b60405180910390fd5b600560003373ffffffffffffffffffffffffffffffffffffffff1673ffffffffffffffffffffffffffffffffffffffff16815260200190815260200160002060020154600560003373ffffffffffffffffffffffffffffffffffffffff1673ffffffffffffffffffffffffffffffffffffffff1681526020019081526020016000206001015414610e14576040517f08c379a0000000000000000000000000000000000000000000000000000000008152600401610e0b90612028565b60405180910390fd5b6000600560003373ffffffffffffffffffffffffffffffffffffffff1673ffffffffffffffffffffffffffffffffffffffff1681526020019081526020016000206040518060800160405290816000820160009054906101000a900460ff166001811115610e8557610e84611818565b5b6001811115610e9757610e96611818565b5b815260200160018201548152602001600282015481526020016003820154815250509050600080600180811115610ed157610ed0611818565b5b83600001516001811115610ee857610ee7611818565b5b1415610fb6574262ed4e008460600151610f029190611aea565b10610f42576040517f08c379a0000000000000000000000000000000000000000000000000000000008152600401610f3990611b8c565b60405180910390fd5b600a8360200151610f539190611bdb565b905060016228de8062ed4e008560600151610f6e9190611aea565b42610f799190611c0c565b610f839190611bdb565b610f8d9190611aea565b9150600a836040015183610fa19190611c0c565b11610fac5781610faf565b600a5b915061107c565b426303c267008460600151610fcb9190611aea565b1061100b576040517f08c379a000000000000000000000000000000000000000000000000000000000815260040161100290611b8c565b60405180910390fd5b600a836020015161101c9190611bdb565b905060016228de806303c2670085606001516110389190611aea565b426110439190611c0c565b61104d9190611bdb565b6110579190611aea565b9150600a83604001518361106b9190611c0c565b116110765781611079565b600a5b91505b8260400151818361108d9190611cd2565b146110cd576040517f08c379a00000000000000000000000000000000000000000000000000000000081526004016110c490611cb2565b60405180910390fd5b600460009054906101000a900473ffffffffffffffffffffffffffffffffffffffff1673ffffffffffffffffffffffffffffffffffffffff1663a9059cbb338560400151848661111d9190611cd2565b6111279190611c0c565b6040518363ffffffff167c0100000000000000000000000000000000000000000000000000000000028152600401611160929190611d2c565b602060405180830381600087803b15801561117a57600080fd5b505af115801561118e573d6000803e3d6000fd5b505050506040513d601f19601f820116820180604052508101906111b29190611d8d565b50826040015181836111c49190611cd2565b6111ce9190611c0c565b836040018181516111df9190611aea565b9150818152505082600560003373ffffffffffffffffffffffffffffffffffffffff1673ffffffffffffffffffffffffffffffffffffffff16815260200190815260200160002060008201518160000160006101000a81548160ff0219169083600181111561125157611250611818565b5b0217905550602082015181600101556040820151816002015560608201518160030155905050505050565b6112846116bc565b73ffffffffffffffffffffffffffffffffffffffff166112a26107d3565b73ffffffffffffffffffffffffffffffffffffffff16146112f8576040517f08c379a00000000000000000000000000000000000000000000000000000000081526004016112ef90611e06565b60405180910390fd5b6000600560008473ffffffffffffffffffffffffffffffffffffffff1673ffffffffffffffffffffffffffffffffffffffff168152602001908152602001600020600101541461137d576040517f08c379a0000000000000000000000000000000000000000000000000000000008152600401611374906120ba565b60405180910390fd5b8060025410156113c2576040517f08c379a00000000000000000000000000000000000000000000000000000000081526004016113b99061214c565b60405180910390fd5b600060405180608001604052806001808111156113e2576113e1611818565b5b8152602001600a846113f49190611bdb565b846113ff9190611c0c565b81526020016000815260200142815250905080600560008573ffffffffffffffffffffffffffffffffffffffff1673ffffffffffffffffffffffffffffffffffffffff16815260200190815260200160002060008201518160000160006101000a81548160ff0219169083600181111561147c5761147b611818565b5b021790555060208201518160010155604082015181600201556060820151816003015590505081600260008282546114b49190611c0c565b92505081905550600460009054906101000a900473ffffffffffffffffffffffffffffffffffffffff1673ffffffffffffffffffffffffffffffffffffffff1663a9059cbb84600a856115079190611bdb565b6040518363ffffffff167c0100000000000000000000000000000000000000000000000000000000028152600401611540929190611d2c565b602060405180830381600087803b15801561155a57600080fd5b505af115801561156e573d6000803e3d6000fd5b505050506040513d601f19601f820116820180604052508101906115929190611d8d565b50505050565b60035481565b6115a66116bc565b73ffffffffffffffffffffffffffffffffffffffff166115c46107d3565b73ffffffffffffffffffffffffffffffffffffffff161461161a576040517f08c379a000000000000000000000000000000000000000000000000000000000815260040161161190611e06565b60405180910390fd5b600073ffffffffffffffffffffffffffffffffffffffff168173ffffffffffffffffffffffffffffffffffffffff16141561168a576040517f08c379a0000000000000000000000000000000000000000000000000000000008152600401611681906121de565b60405180910390fd5b611693816116c4565b50565b600460009054906101000a900473ffffffffffffffffffffffffffffffffffffffff1681565b600033905090565b60008060009054906101000a900473ffffffffffffffffffffffffffffffffffffffff169050816000806101000a81548173ffffffffffffffffffffffffffffffffffffffff021916908373ffffffffffffffffffffffffffffffffffffffff1602179055508173ffffffffffffffffffffffffffffffffffffffff168173ffffffffffffffffffffffffffffffffffffffff167f8be0079c531659141344cd1fd0a4f28419497f9722a3daafe3b4186f6b6457e060405160405180910390a35050565b600080fd5b600073ffffffffffffffffffffffffffffffffffffffff82169050919050565b60006117b88261178d565b9050919050565b6117c8816117ad565b81146117d357600080fd5b50565b6000813590506117e5816117bf565b92915050565b60006020828403121561180157611800611788565b5b600061180f848285016117d6565b91505092915050565b7f4e487b7100000000000000000000000000000000000000000000000000000000600052602160045260246000fd5b6002811061185857611857611818565b5b50565b600081905061186982611847565b919050565b60006118798261185b565b9050919050565b6118898161186e565b82525050565b6000819050919050565b6118a28161188f565b82525050565b60006080820190506118bd6000830187611880565b6118ca6020830186611899565b6118d76040830185611899565b6118e46060830184611899565b95945050505050565b60006020820190506119026000830184611899565b92915050565b611911816117ad565b82525050565b600060208201905061192c6000830184611908565b92915050565b61193b8161188f565b811461194657600080fd5b50565b60008135905061195881611932565b92915050565b6000806040838503121561197557611974611788565b5b6000611983858286016117d6565b925050602061199485828601611949565b9150509250929050565b6000819050919050565b60006119c36119be6119b98461178d565b61199e565b61178d565b9050919050565b60006119d5826119a8565b9050919050565b60006119e7826119ca565b9050919050565b6119f7816119dc565b82525050565b6000602082019050611a1260008301846119ee565b92915050565b600082825260208201905092915050565b7f796f752063616e206e6f742061636373657373207468697320696e666f726d6160008201527f74696f6e00000000000000000000000000000000000000000000000000000000602082015250565b6000611a85602483611a18565b9150611a9082611a29565b604082019050919050565b60006020820190508181036000830152611ab481611a78565b9050919050565b7f4e487b7100000000000000000000000000000000000000000000000000000000600052601160045260246000fd5b6000611af58261188f565b9150611b008361188f565b9250827fffffffffffffffffffffffffffffffffffffffffffffffffffffffffffffffff03821115611b3557611b34611abb565b5b828201905092915050565b7f596f7572206163636f756e74206973207374696c6c2066726f7a656e00000000600082015250565b6000611b76601c83611a18565b9150611b8182611b40565b602082019050919050565b60006020820190508181036000830152611ba581611b69565b9050919050565b7f4e487b7100000000000000000000000000000000000000000000000000000000600052601260045260246000fd5b6000611be68261188f565b9150611bf18361188f565b925082611c0157611c00611bac565b5b828204905092915050565b6000611c178261188f565b9150611c228361188f565b925082821015611c3557611c34611abb565b5b828203905092915050565b7f796f7520616c72656164792075736520796f757220616d6f756e742062616c6160008201527f6e636520666f722074686973206d6f6e74680000000000000000000000000000602082015250565b6000611c9c603283611a18565b9150611ca782611c40565b604082019050919050565b60006020820190508181036000830152611ccb81611c8f565b9050919050565b6000611cdd8261188f565b9150611ce88361188f565b9250817fffffffffffffffffffffffffffffffffffffffffffffffffffffffffffffffff0483118215151615611d2157611d20611abb565b5b828202905092915050565b6000604082019050611d416000830185611908565b611d4e6020830184611899565b9392505050565b60008115159050919050565b611d6a81611d55565b8114611d7557600080fd5b50565b600081519050611d8781611d61565b92915050565b600060208284031215611da357611da2611788565b5b6000611db184828501611d78565b91505092915050565b7f4f776e61626c653a2063616c6c6572206973206e6f7420746865206f776e6572600082015250565b6000611df0602083611a18565b9150611dfb82611dba565b602082019050919050565b60006020820190508181036000830152611e1f81611de3565b9050919050565b7f6f6e2074686973206164647265737320466f756e64657220616c72656164792060008201527f6578697374730000000000000000000000000000000000000000000000000000602082015250565b6000611e82602683611a18565b9150611e8d82611e26565b604082019050919050565b60006020820190508181036000830152611eb181611e75565b9050919050565b7f43616e206e6f74206164642061206e657720666f756e6465722062656361757360008201527f652074686520746f6b656e732061726520657868617573746564000000000000602082015250565b6000611f14603a83611a18565b9150611f1f82611eb8565b604082019050919050565b60006020820190508181036000830152611f4381611f07565b9050919050565b7f73686f756c64206e6f74206578636565642074686520746f74616c2062616c6160008201527f6e6365206f6620746f6b656e7320736f6c640000000000000000000000000000602082015250565b6000611fa6603283611a18565b9150611fb182611f4a565b604082019050919050565b60006020820190508181036000830152611fd581611f99565b9050919050565b7f796f757220746f74616c20616d6f756e74206973206578686175737465640000600082015250565b6000612012601e83611a18565b915061201d82611fdc565b602082019050919050565b6000602082019050818103600083015261204181612005565b9050919050565b7f6f6e2074686973206164647265737320656d706c6f79656520616c726561647960008201527f2065786973747300000000000000000000000000000000000000000000000000602082015250565b60006120a4602783611a18565b91506120af82612048565b604082019050919050565b600060208201905081810360008301526120d381612097565b9050919050565b7f43616e206e6f74206164642061206e657720656d706c6f79656520626563617560008201527f73652074686520746f6b656e7320617265207370656e64656400000000000000602082015250565b6000612136603983611a18565b9150612141826120da565b604082019050919050565b6000602082019050818103600083015261216581612129565b9050919050565b7f4f776e61626c653a206e6577206f776e657220697320746865207a65726f206160008201527f6464726573730000000000000000000000000000000000000000000000000000602082015250565b60006121c8602683611a18565b91506121d38261216c565b604082019050919050565b600060208201905081810360008301526121f7816121bb565b905091905056fea26469706673582212209f279c4872fbe988cb4a32701a06884554c9683949fa43230f458405d83f6a0664736f6c6343000809003360806040523480156200001157600080fd5b506040518060400160405280600a81526020017f4661737420546f6b656e000000000000000000000000000000000000000000008152506040518060400160405280600281526020017f465400000000000000000000000000000000000000000000000000000000000081525081600390805190602001906200009692919062000272565b508060049080519060200190620000af92919062000272565b505050620000d73369d3c21bcecceda1000000620000dd640100000000026401000000009004565b620004ce565b600073ffffffffffffffffffffffffffffffffffffffff168273ffffffffffffffffffffffffffffffffffffffff16141562000150576040517f08c379a0000000000000000000000000000000000000000000000000000000008152600401620001479062000383565b60405180910390fd5b6200016d6000838362000268640100000000026401000000009004565b8060026000828254620001819190620003de565b92505081905550806000808473ffffffffffffffffffffffffffffffffffffffff1673ffffffffffffffffffffffffffffffffffffffff1681526020019081526020016000206000828254620001d89190620003de565b925050819055508173ffffffffffffffffffffffffffffffffffffffff16600073ffffffffffffffffffffffffffffffffffffffff167fddf252ad1be2c89b69c2b068fc378daa952ba7f163c4a11628f55a4df523b3ef836040516200023f91906200044c565b60405180910390a362000264600083836200026d640100000000026401000000009004565b5050565b505050565b505050565b828054620002809062000498565b90600052602060002090601f016020900481019282620002a45760008555620002f0565b82601f10620002bf57805160ff1916838001178555620002f0565b82800160010185558215620002f0579182015b82811115620002ef578251825591602001919060010190620002d2565b5b509050620002ff919062000303565b5090565b5b808211156200031e57600081600090555060010162000304565b5090565b600082825260208201905092915050565b7f45524332303a206d696e7420746f20746865207a65726f206164647265737300600082015250565b60006200036b601f8362000322565b9150620003788262000333565b602082019050919050565b600060208201905081810360008301526200039e816200035c565b9050919050565b6000819050919050565b7f4e487b7100000000000000000000000000000000000000000000000000000000600052601160045260246000fd5b6000620003eb82620003a5565b9150620003f883620003a5565b9250827fffffffffffffffffffffffffffffffffffffffffffffffffffffffffffffffff0382111562000430576200042f620003af565b5b828201905092915050565b6200044681620003a5565b82525050565b60006020820190506200046360008301846200043b565b92915050565b7f4e487b7100000000000000000000000000000000000000000000000000000000600052602260045260246000fd5b60006002820490506001821680620004b157607f821691505b60208210811415620004c857620004c762000469565b5b50919050565b61128580620004de6000396000f3fe608060405234801561001057600080fd5b50600436106100c6576000357c010000000000000000000000000000000000000000000000000000000090048063395093511161008e578063395093511461018557806370a08231146101b557806395d89b41146101e5578063a457c2d714610203578063a9059cbb14610233578063dd62ed3e14610263576100c6565b806306fdde03146100cb578063095ea7b3146100e957806318160ddd1461011957806323b872dd14610137578063313ce56714610167575b600080fd5b6100d3610293565b6040516100e09190610b3f565b60405180910390f35b61010360048036038101906100fe9190610bfa565b610325565b6040516101109190610c55565b60405180910390f35b610121610348565b60405161012e9190610c7f565b60405180910390f35b610151600480360381019061014c9190610c9a565b610352565b60405161015e9190610c55565b60405180910390f35b61016f610381565b60405161017c9190610d09565b60405180910390f35b61019f600480360381019061019a9190610bfa565b61038a565b6040516101ac9190610c55565b60405180910390f35b6101cf60048036038101906101ca9190610d24565b6103c1565b6040516101dc9190610c7f565b60405180910390f35b6101ed610409565b6040516101fa9190610b3f565b60405180910390f35b61021d60048036038101906102189190610bfa565b61049b565b60405161022a9190610c55565b60405180910390f35b61024d60048036038101906102489190610bfa565b610512565b60405161025a9190610c55565b60405180910390f35b61027d60048036038101906102789190610d51565b610535565b60405161028a9190610c7f565b60405180910390f35b6060600380546102a290610dc0565b80601f01602080910402602001604051908101604052809291908181526020018280546102ce90610dc0565b801561031b5780601f106102f05761010080835404028352916020019161031b565b820191906000526020600020905b8154815290600101906020018083116102fe57829003601f168201915b5050505050905090565b6000806103306105bc565b905061033d8185856105c4565b600191505092915050565b6000600254905090565b60008061035d6105bc565b905061036a85828561078f565b61037585858561081b565b60019150509392505050565b60006012905090565b6000806103956105bc565b90506103b68185856103a78589610535565b6103b19190610e21565b6105c4565b600191505092915050565b60008060008373ffffffffffffffffffffffffffffffffffffffff1673ffffffffffffffffffffffffffffffffffffffff168152602001908152602001600020549050919050565b60606004805461041890610dc0565b80601f016020809104026020016040519081016040528092919081815260200182805461044490610dc0565b80156104915780601f1061046657610100808354040283529160200191610491565b820191906000526020600020905b81548152906001019060200180831161047457829003601f168201915b5050505050905090565b6000806104a66105bc565b905060006104b48286610535565b9050838110156104f9576040517f08c379a00000000000000000000000000000000000000000000000000000000081526004016104f090610ee9565b60405180910390fd5b61050682868684036105c4565b60019250505092915050565b60008061051d6105bc565b905061052a81858561081b565b600191505092915050565b6000600160008473ffffffffffffffffffffffffffffffffffffffff1673ffffffffffffffffffffffffffffffffffffffff16815260200190815260200160002060008373ffffffffffffffffffffffffffffffffffffffff1673ffffffffffffffffffffffffffffffffffffffff16815260200190815260200160002054905092915050565b600033905090565b600073ffffffffffffffffffffffffffffffffffffffff168373ffffffffffffffffffffffffffffffffffffffff161415610634576040517f08c379a000000000000000000000000000000000000000000000000000000000815260040161062b90610f7b565b60405180910390fd5b600073ffffffffffffffffffffffffffffffffffffffff168273ffffffffffffffffffffffffffffffffffffffff1614156106a4576040517f08c379a000000000000000000000000000000000000000000000000000000000815260040161069b9061100d565b60405180910390fd5b80600160008573ffffffffffffffffffffffffffffffffffffffff1673ffffffffffffffffffffffffffffffffffffffff16815260200190815260200160002060008473ffffffffffffffffffffffffffffffffffffffff1673ffffffffffffffffffffffffffffffffffffffff168152602001908152602001600020819055508173ffffffffffffffffffffffffffffffffffffffff168373ffffffffffffffffffffffffffffffffffffffff167f8c5be1e5ebec7d5bd14f71427d1e84f3dd0314c0f7b2291e5b200ac8c7c3b925836040516107829190610c7f565b60405180910390a3505050565b600061079b8484610535565b90507fffffffffffffffffffffffffffffffffffffffffffffffffffffffffffffffff81146108155781811015610807576040517f08c379a00000000000000000000000000000000000000000000000000000000081526004016107fe90611079565b60405180910390fd5b61081484848484036105c4565b5b50505050565b600073ffffffffffffffffffffffffffffffffffffffff168373ffffffffffffffffffffffffffffffffffffffff16141561088b576040517f08c379a00000000000000000000000000000000000000000000000000000000081526004016108829061110b565b60405180910390fd5b600073ffffffffffffffffffffffffffffffffffffffff168273ffffffffffffffffffffffffffffffffffffffff1614156108fb576040517f08c379a00000000000000000000000000000000000000000000000000000000081526004016108f29061119d565b60405180910390fd5b610906838383610a9c565b60008060008573ffffffffffffffffffffffffffffffffffffffff1673ffffffffffffffffffffffffffffffffffffffff1681526020019081526020016000205490508181101561098c576040517f08c379a00000000000000000000000000000000000000000000000000000000081526004016109839061122f565b60405180910390fd5b8181036000808673ffffffffffffffffffffffffffffffffffffffff1673ffffffffffffffffffffffffffffffffffffffff16815260200190815260200160002081905550816000808573ffffffffffffffffffffffffffffffffffffffff1673ffffffffffffffffffffffffffffffffffffffff1681526020019081526020016000206000828254610a1f9190610e21565b925050819055508273ffffffffffffffffffffffffffffffffffffffff168473ffffffffffffffffffffffffffffffffffffffff167fddf252ad1be2c89b69c2b068fc378daa952ba7f163c4a11628f55a4df523b3ef84604051610a839190610c7f565b60405180910390a3610a96848484610aa1565b50505050565b505050565b505050565b600081519050919050565b600082825260208201905092915050565b60005b83811015610ae0578082015181840152602081019050610ac5565b83811115610aef576000848401525b50505050565b6000601f19601f8301169050919050565b6000610b1182610aa6565b610b1b8185610ab1565b9350610b2b818560208601610ac2565b610b3481610af5565b840191505092915050565b60006020820190508181036000830152610b598184610b06565b905092915050565b600080fd5b600073ffffffffffffffffffffffffffffffffffffffff82169050919050565b6000610b9182610b66565b9050919050565b610ba181610b86565b8114610bac57600080fd5b50565b600081359050610bbe81610b98565b92915050565b6000819050919050565b610bd781610bc4565b8114610be257600080fd5b50565b600081359050610bf481610bce565b92915050565b60008060408385031215610c1157610c10610b61565b5b6000610c1f85828601610baf565b9250506020610c3085828601610be5565b9150509250929050565b60008115159050919050565b610c4f81610c3a565b82525050565b6000602082019050610c6a6000830184610c46565b92915050565b610c7981610bc4565b82525050565b6000602082019050610c946000830184610c70565b92915050565b600080600060608486031215610cb357610cb2610b61565b5b6000610cc186828701610baf565b9350506020610cd286828701610baf565b9250506040610ce386828701610be5565b9150509250925092565b600060ff82169050919050565b610d0381610ced565b82525050565b6000602082019050610d1e6000830184610cfa565b92915050565b600060208284031215610d3a57610d39610b61565b5b6000610d4884828501610baf565b91505092915050565b60008060408385031215610d6857610d67610b61565b5b6000610d7685828601610baf565b9250506020610d8785828601610baf565b9150509250929050565b7f4e487b7100000000000000000000000000000000000000000000000000000000600052602260045260246000fd5b60006002820490506001821680610dd857607f821691505b60208210811415610dec57610deb610d91565b5b50919050565b7f4e487b7100000000000000000000000000000000000000000000000000000000600052601160045260246000fd5b6000610e2c82610bc4565b9150610e3783610bc4565b9250827fffffffffffffffffffffffffffffffffffffffffffffffffffffffffffffffff03821115610e6c57610e6b610df2565b5b828201905092915050565b7f45524332303a2064656372656173656420616c6c6f77616e63652062656c6f7760008201527f207a65726f000000000000000000000000000000000000000000000000000000602082015250565b6000610ed3602583610ab1565b9150610ede82610e77565b604082019050919050565b60006020820190508181036000830152610f0281610ec6565b9050919050565b7f45524332303a20617070726f76652066726f6d20746865207a65726f2061646460008201527f7265737300000000000000000000000000000000000000000000000000000000602082015250565b6000610f65602483610ab1565b9150610f7082610f09565b604082019050919050565b60006020820190508181036000830152610f9481610f58565b9050919050565b7f45524332303a20617070726f766520746f20746865207a65726f20616464726560008201527f7373000000000000000000000000000000000000000000000000000000000000602082015250565b6000610ff7602283610ab1565b915061100282610f9b565b604082019050919050565b6000602082019050818103600083015261102681610fea565b9050919050565b7f45524332303a20696e73756666696369656e7420616c6c6f77616e6365000000600082015250565b6000611063601d83610ab1565b915061106e8261102d565b602082019050919050565b6000602082019050818103600083015261109281611056565b9050919050565b7f45524332303a207472616e736665722066726f6d20746865207a65726f20616460008201527f6472657373000000000000000000000000000000000000000000000000000000602082015250565b60006110f5602583610ab1565b915061110082611099565b604082019050919050565b60006020820190508181036000830152611124816110e8565b9050919050565b7f45524332303a207472616e7366657220746f20746865207a65726f206164647260008201527f6573730000000000000000000000000000000000000000000000000000000000602082015250565b6000611187602383610ab1565b91506111928261112b565b604082019050919050565b600060208201905081810360008301526111b68161117a565b9050919050565b7f45524332303a207472616e7366657220616d6f756e742065786365656473206260008201527f616c616e63650000000000000000000000000000000000000000000000000000602082015250565b6000611219602683610ab1565b9150611224826111bd565b604082019050919050565b600060208201905081810360008301526112488161120c565b905091905056fea2646970667358221220a4c8df7c350bba4f93fc6a4f65ce5793d41cc064f73080e70b224e37575732cf64736f6c63430008090033",
  "immutableReferences": {},
  "source": "// SPDX-License-Identifier: MIT\npragma solidity ^0.8.9;\n\n/// Library imports\nimport \"@openzeppelin/contracts/access/Ownable.sol\";\n\n/// Local imports\nimport \"./FastToken.sol\";\n\ncontract Distributer is Ownable {\n\n    uint256 public foundersTotalSupply;\n    uint256 public employeesTotalSupply;\n    uint256 public soldTokensTotalSupply;\n    FastToken public fastToken;\n\n    constructor() { \n        fastToken = new FastToken();\n        foundersTotalSupply = (400000 * 10 ** 18);\n        employeesTotalSupply = (200000 * 10 ** 18);\n        soldTokensTotalSupply = (400000 * 10 ** 18);\n        require(fastToken.totalSupply() == foundersTotalSupply + employeesTotalSupply + soldTokensTotalSupply, \"does not match total supply\"); \n    }\n  \n    mapping(address => Owners) public owners;\n     \n    enum OwnerType { Founder, Employee }\n\n    struct Owners {\n        OwnerType ownerType;\n        uint256 totalAmount; \n        uint256 monthsClaimed;\n        uint256 allocationTime;\n    }\n\n    /// Owner Only functions\n    function addFounder(address founder_, uint256 amount_) public onlyOwner {\n\n        require(owners[founder_].totalAmount == 0, \"on this address Founder already exists\");\n        require(foundersTotalSupply >= amount_, \"Can not add a new founder because the tokens are exhausted\");\n        Owners memory owner = Owners(OwnerType.Founder,\n                                     (amount_ - (amount_ / 5)),\n                                     0,\n                                     block.timestamp);\n        \n        owners[founder_] = owner;\n        foundersTotalSupply -= amount_;\n        fastToken.transfer(founder_, amount_ / 5);   \n    } \n\n    function addEmployee(address employee_, uint256 amount_) public onlyOwner {\n\n        require(owners[employee_].totalAmount == 0, \"on this address employee already exists\");\n        require(employeesTotalSupply >= amount_, \"Can not add a new employee because the tokens are spended\");\n        Owners memory owner = Owners(OwnerType.Employee,\n                                     (amount_ - (amount_ / 10)),\n                                     0,\n                                     block.timestamp);\n\n        owners[employee_] = owner;\n        employeesTotalSupply -= amount_;\n        fastToken.transfer(employee_, amount_ / 10);\n    }\n\n    function soldTokensManagement(address buyer_, uint256 amount_) public  onlyOwner {\n\n        require(amount_ <= soldTokensTotalSupply, \"should not exceed the total balance of tokens sold\");\n        fastToken.transfer(buyer_, amount_);\n        soldTokensTotalSupply -= amount_;\n    }\n\n    /// Owners API\n    function claim() public {\n        \n        require(0 < owners[msg.sender].totalAmount, \"you can not accsess this information\");\n        Owners memory user = owners[msg.sender];\n        uint256 month = 0; \n        uint256 ownerPercentsAmount = 0;\n        \n        if (user.ownerType == OwnerType.Employee) {\n            require((user.allocationTime + 180 days) > block.timestamp, \"Your account is still frozen\");\n            ownerPercentsAmount = (user.totalAmount / 10);\n            month = ((block.timestamp - (user.allocationTime )) / 31 days) + 1;\n            month = ((month - user.monthsClaimed) > 10) ? 10 : month;\n        } else {\n            require((user.allocationTime + 730 days) > block.timestamp, \"Your account is still frozen\");\n            ownerPercentsAmount = (user.totalAmount / 5);\n            month = ((block.timestamp - (user.allocationTime )) / 31 days) + 1;\n            month = ((month - user.monthsClaimed) > 5) ? 5 : month;\n        }\n        \n        require(month > user.monthsClaimed, \"you already use your amount balance for this month\");\n        fastToken.transfer(msg.sender, (month - user.monthsClaimed) * ownerPercentsAmount);\n        user.totalAmount -= (month * ownerPercentsAmount);\n        user.monthsClaimed = month;\n        owners[msg.sender] = user;\n    }  \n\n    function claims() public {\n\n        require(0 < owners[msg.sender].totalAmount, \"you can not accsess this information\");\n        require(owners[msg.sender].totalAmount == owners[msg.sender].monthsClaimed,\"your total amount is exhausted\");\n\n        Owners memory user = owners[msg.sender];\n        uint256 month = 0; \n        uint256 ownerPercentsAmount = 0;\n\n        if (user.ownerType == OwnerType.Employee) {\n            require((user.allocationTime + 180 days) < block.timestamp, \"Your account is still frozen\");\n            ownerPercentsAmount = (user.totalAmount / 10);\n            month = ((block.timestamp - (user.allocationTime + 180 days)) / 31 days) + 1;\n            month = ((month - user.monthsClaimed) > 10) ? 10 : month;\n           \n        } else {\n            require((user.allocationTime + 730 days) < block.timestamp, \"Your account is still frozen\");\n            ownerPercentsAmount = (user.totalAmount / 10);\n            month = ((block.timestamp - (user.allocationTime + 730 days)) / 31 days) + 1;\n            month = ((month - user.monthsClaimed) > 10) ? 10 : month;   \n        }\n        \n        require((month * ownerPercentsAmount) == user.monthsClaimed, \"you already use your amount balance for this month\");\n        fastToken.transfer(msg.sender, (month * ownerPercentsAmount - user.monthsClaimed));\n        user.monthsClaimed += ((month * ownerPercentsAmount) - user.monthsClaimed);\n        owners[msg.sender] = user;\n    }\n        \n}\n",
  "sourcePath": "/home/karen/Distribution contract/contracts/Distributer.sol",
  "compiler": {
    "name": "solc",
    "version": "0.8.9+commit.e5eed63a.Emscripten.clang"
  },
  "schemaVersion": "3.4.7",
  "updatedAt": "2022-06-03T12:56:20.532Z",
  "devdoc": {
    "kind": "dev",
    "methods": {
      "owner()": {
        "details": "Returns the address of the current owner."
      },
      "renounceOwnership()": {
        "details": "Leaves the contract without owner. It will not be possible to call `onlyOwner` functions anymore. Can only be called by the current owner. NOTE: Renouncing ownership will leave the contract without an owner, thereby removing any functionality that is only available to the owner."
      },
      "transferOwnership(address)": {
        "details": "Transfers ownership of the contract to a new account (`newOwner`). Can only be called by the current owner."
      }
    },
    "version": 1
  },
  "userdoc": {
    "kind": "user",
    "methods": {
      "addFounder(address,uint256)": {
        "notice": "Owner Only functions"
      },
      "claim()": {
        "notice": "Owners API"
      }
    },
    "version": 1
  }
}