{
  "contractName": "Distributer",
  "abi": [
    {
      "inputs": [],
      "stateMutability": "nonpayable",
      "type": "constructor"
    },
    {
      "anonymous": false,
      "inputs": [
        {
          "indexed": true,
          "internalType": "address",
          "name": "previousOwner",
          "type": "address"
        },
        {
          "indexed": true,
          "internalType": "address",
          "name": "newOwner",
          "type": "address"
        }
      ],
      "name": "OwnershipTransferred",
      "type": "event"
    },
    {
      "inputs": [],
      "name": "employeesTotalSupply",
      "outputs": [
        {
          "internalType": "uint256",
          "name": "",
          "type": "uint256"
        }
      ],
      "stateMutability": "view",
      "type": "function"
    },
    {
      "inputs": [],
      "name": "foundersTotalSupply",
      "outputs": [
        {
          "internalType": "uint256",
          "name": "",
          "type": "uint256"
        }
      ],
      "stateMutability": "view",
      "type": "function"
    },
    {
      "inputs": [],
      "name": "owner",
      "outputs": [
        {
          "internalType": "address",
          "name": "",
          "type": "address"
        }
      ],
      "stateMutability": "view",
      "type": "function"
    },
    {
      "inputs": [
        {
          "internalType": "address",
          "name": "",
          "type": "address"
        }
      ],
      "name": "owners",
      "outputs": [
        {
          "internalType": "enum Distributer.OwnerType",
          "name": "ownerType",
          "type": "uint8"
        },
        {
          "internalType": "address",
          "name": "owner",
          "type": "address"
        },
        {
          "internalType": "uint256",
          "name": "totalAmount",
          "type": "uint256"
        },
        {
          "internalType": "uint256",
          "name": "monthsClaimed",
          "type": "uint256"
        },
        {
          "internalType": "uint256",
          "name": "allocationTime",
          "type": "uint256"
        }
      ],
      "stateMutability": "view",
      "type": "function"
    },
    {
      "inputs": [],
      "name": "renounceOwnership",
      "outputs": [],
      "stateMutability": "nonpayable",
      "type": "function"
    },
    {
      "inputs": [],
      "name": "soldTokensTotalSupply",
      "outputs": [
        {
          "internalType": "uint256",
          "name": "",
          "type": "uint256"
        }
      ],
      "stateMutability": "view",
      "type": "function"
    },
    {
      "inputs": [
        {
          "internalType": "address",
          "name": "newOwner",
          "type": "address"
        }
      ],
      "name": "transferOwnership",
      "outputs": [],
      "stateMutability": "nonpayable",
      "type": "function"
    },
    {
      "inputs": [
        {
          "internalType": "address",
          "name": "founder_",
          "type": "address"
        },
        {
          "internalType": "uint256",
          "name": "amount_",
          "type": "uint256"
        }
      ],
      "name": "addFounder",
      "outputs": [],
      "stateMutability": "nonpayable",
      "type": "function"
    },
    {
      "inputs": [
        {
          "internalType": "address",
          "name": "employee_",
          "type": "address"
        },
        {
          "internalType": "uint256",
          "name": "amount_",
          "type": "uint256"
        }
      ],
      "name": "addEmployee",
      "outputs": [],
      "stateMutability": "nonpayable",
      "type": "function"
    },
    {
      "inputs": [
        {
          "internalType": "address",
          "name": "buyer_",
          "type": "address"
        },
        {
          "internalType": "uint256",
          "name": "amount_",
          "type": "uint256"
        }
      ],
      "name": "soldTokensManagement",
      "outputs": [],
      "stateMutability": "payable",
      "type": "function"
    },
    {
      "inputs": [
        {
          "internalType": "address",
          "name": "owner_",
          "type": "address"
        }
      ],
      "name": "currentStatus",
      "outputs": [
        {
          "components": [
            {
              "internalType": "enum Distributer.OwnerType",
              "name": "ownerType",
              "type": "uint8"
            },
            {
              "internalType": "address",
              "name": "owner",
              "type": "address"
            },
            {
              "internalType": "uint256",
              "name": "totalAmount",
              "type": "uint256"
            },
            {
              "internalType": "uint256",
              "name": "monthsClaimed",
              "type": "uint256"
            },
            {
              "internalType": "uint256",
              "name": "allocationTime",
              "type": "uint256"
            }
          ],
          "internalType": "struct Distributer.Owners",
          "name": "",
          "type": "tuple"
        }
      ],
      "stateMutability": "view",
      "type": "function"
    },
    {
      "inputs": [],
      "name": "claim",
      "outputs": [],
      "stateMutability": "payable",
      "type": "function"
    }
  ],
  "bytecode": "0x60806040523480156200001157600080fd5b50620000446200002f62000222640100000000026401000000009004565b6200022a640100000000026401000000009004565b6040516200005290620002ee565b604051809103906000f0801580156200006f573d6000803e3d6000fd5b50600460006101000a81548173ffffffffffffffffffffffffffffffffffffffff021916908373ffffffffffffffffffffffffffffffffffffffff1602179055506954b40b1f852bda000000600181905550692a5a058fc295ed0000006002819055506954b40b1f852bda000000600381905550600354600254600154620000f8919062000335565b62000104919062000335565b670de0b6b3a7640000600460009054906101000a900473ffffffffffffffffffffffffffffffffffffffff1673ffffffffffffffffffffffffffffffffffffffff166318160ddd6040518163ffffffff167c010000000000000000000000000000000000000000000000000000000002815260040160206040518083038186803b1580156200019257600080fd5b505afa158015620001a7573d6000803e3d6000fd5b505050506040513d601f19601f82011682018060405250810190620001cd9190620003c8565b620001d99190620003fa565b146200021c576040517f08c379a00000000000000000000000000000000000000000000000000000000081526004016200021390620004bc565b60405180910390fd5b620004de565b600033905090565b60008060009054906101000a900473ffffffffffffffffffffffffffffffffffffffff169050816000806101000a81548173ffffffffffffffffffffffffffffffffffffffff021916908373ffffffffffffffffffffffffffffffffffffffff1602179055508173ffffffffffffffffffffffffffffffffffffffff168173ffffffffffffffffffffffffffffffffffffffff167f8be0079c531659141344cd1fd0a4f28419497f9722a3daafe3b4186f6b6457e060405160405180910390a35050565b61175c806200261683390190565b6000819050919050565b7f4e487b7100000000000000000000000000000000000000000000000000000000600052601160045260246000fd5b60006200034282620002fc565b91506200034f83620002fc565b9250827fffffffffffffffffffffffffffffffffffffffffffffffffffffffffffffffff0382111562000387576200038662000306565b5b828201905092915050565b600080fd5b620003a281620002fc565b8114620003ae57600080fd5b50565b600081519050620003c28162000397565b92915050565b600060208284031215620003e157620003e062000392565b5b6000620003f184828501620003b1565b91505092915050565b60006200040782620002fc565b91506200041483620002fc565b9250817fffffffffffffffffffffffffffffffffffffffffffffffffffffffffffffffff048311821515161562000450576200044f62000306565b5b828202905092915050565b600082825260208201905092915050565b7f646f6573206e6f74206d6174636820746f74616c20737570706c790000000000600082015250565b6000620004a4601b836200045b565b9150620004b1826200046c565b602082019050919050565b60006020820190508181036000830152620004d78162000495565b9050919050565b61212880620004ee6000396000f3fe6080604052600436106100c4576000357c0100000000000000000000000000000000000000000000000000000000900480638fa906b2116100815780638fa906b2146101be578063c3d90d0d146101e7578063d3208c7a14610203578063e7fd9a131461022e578063e924c5fd14610257578063f2fde38b14610282576100c4565b8063022914a7146100c95780634e71d92d1461010a5780635615dbbc14610114578063715018a61461013f5780637b66e2b7146101565780638da5cb5b14610193575b600080fd5b3480156100d557600080fd5b506100f060048036038101906100eb9190611707565b6102ab565b6040516101019594939291906117d3565b60405180910390f35b61011261030e565b005b34801561012057600080fd5b506101296108ac565b6040516101369190611826565b60405180910390f35b34801561014b57600080fd5b506101546108b2565b005b34801561016257600080fd5b5061017d60048036038101906101789190611707565b61093a565b60405161018a91906118d6565b60405180910390f35b34801561019f57600080fd5b506101a8610b13565b6040516101b591906118f1565b60405180910390f35b3480156101ca57600080fd5b506101e560048036038101906101e09190611938565b610b3c565b005b61020160048036038101906101fc9190611938565b610f08565b005b34801561020f57600080fd5b506102186110b2565b6040516102259190611826565b60405180910390f35b34801561023a57600080fd5b5061025560048036038101906102509190611938565b6110b8565b005b34801561026357600080fd5b5061026c611483565b6040516102799190611826565b60405180910390f35b34801561028e57600080fd5b506102a960048036038101906102a49190611707565b611489565b005b60056020528060005260406000206000915090508060000160009054906101000a900460ff16908060000160019054906101000a900473ffffffffffffffffffffffffffffffffffffffff16908060010154908060020154908060030154905085565b600560003373ffffffffffffffffffffffffffffffffffffffff1673ffffffffffffffffffffffffffffffffffffffff16815260200190815260200160002060000160019054906101000a900473ffffffffffffffffffffffffffffffffffffffff1673ffffffffffffffffffffffffffffffffffffffff163373ffffffffffffffffffffffffffffffffffffffff16146103de576040517f08c379a00000000000000000000000000000000000000000000000000000000081526004016103d5906119fb565b60405180910390fd5b60006001808111156103f3576103f2611734565b5b600560003373ffffffffffffffffffffffffffffffffffffffff1673ffffffffffffffffffffffffffffffffffffffff16815260200190815260200160002060000160009054906101000a900460ff16600181111561045557610454611734565b5b1415610543574262ed4e00600560003373ffffffffffffffffffffffffffffffffffffffff1673ffffffffffffffffffffffffffffffffffffffff168152602001908152602001600020600301546104ad9190611a4a565b116104ed576040517f08c379a00000000000000000000000000000000000000000000000000000000081526004016104e490611aec565b60405180910390fd5b600a600560003373ffffffffffffffffffffffffffffffffffffffff1673ffffffffffffffffffffffffffffffffffffffff1681526020019081526020016000206001015461053c9190611b3b565b9050610627565b426303c26700600560003373ffffffffffffffffffffffffffffffffffffffff1673ffffffffffffffffffffffffffffffffffffffff168152602001908152602001600020600301546105969190611a4a565b116105d6576040517f08c379a00000000000000000000000000000000000000000000000000000000081526004016105cd90611aec565b60405180910390fd5b60058060003373ffffffffffffffffffffffffffffffffffffffff1673ffffffffffffffffffffffffffffffffffffffff168152602001908152602001600020600101546106249190611b3b565b90505b600062015180600560003373ffffffffffffffffffffffffffffffffffffffff1673ffffffffffffffffffffffffffffffffffffffff168152602001908152602001600020600301544261067b9190611b6c565b6106859190611b3b565b90506001601f826106969190611b3b565b6106a09190611a4a565b9050600560003373ffffffffffffffffffffffffffffffffffffffff1673ffffffffffffffffffffffffffffffffffffffff168152602001908152602001600020600201548111610726576040517f08c379a000000000000000000000000000000000000000000000000000000000815260040161071d90611c12565b60405180910390fd5b600460009054906101000a900473ffffffffffffffffffffffffffffffffffffffff1673ffffffffffffffffffffffffffffffffffffffff1663a9059cbb3384846107719190611c32565b6040518363ffffffff167c01000000000000000000000000000000000000000000000000000000000281526004016107aa929190611c8c565b602060405180830381600087803b1580156107c457600080fd5b505af11580156107d8573d6000803e3d6000fd5b505050506040513d601f19601f820116820180604052508101906107fc9190611ced565b5081816108099190611c32565b600560003373ffffffffffffffffffffffffffffffffffffffff1673ffffffffffffffffffffffffffffffffffffffff168152602001908152602001600020600101600082825461085a9190611b6c565b9250508190555080600560003373ffffffffffffffffffffffffffffffffffffffff1673ffffffffffffffffffffffffffffffffffffffff168152602001908152602001600020600201819055505050565b60025481565b6108ba611581565b73ffffffffffffffffffffffffffffffffffffffff166108d8610b13565b73ffffffffffffffffffffffffffffffffffffffff161461092e576040517f08c379a000000000000000000000000000000000000000000000000000000000815260040161092590611d66565b60405180910390fd5b6109386000611589565b565b61094261164d565b600560008373ffffffffffffffffffffffffffffffffffffffff1673ffffffffffffffffffffffffffffffffffffffff16815260200190815260200160002060000160019054906101000a900473ffffffffffffffffffffffffffffffffffffffff1673ffffffffffffffffffffffffffffffffffffffff163373ffffffffffffffffffffffffffffffffffffffff161415610a13576040517f08c379a0000000000000000000000000000000000000000000000000000000008152600401610a0a906119fb565b60405180910390fd5b600560008373ffffffffffffffffffffffffffffffffffffffff1673ffffffffffffffffffffffffffffffffffffffff1681526020019081526020016000206040518060a00160405290816000820160009054906101000a900460ff166001811115610a8257610a81611734565b5b6001811115610a9457610a93611734565b5b81526020016000820160019054906101000a900473ffffffffffffffffffffffffffffffffffffffff1673ffffffffffffffffffffffffffffffffffffffff1673ffffffffffffffffffffffffffffffffffffffff16815260200160018201548152602001600282015481526020016003820154815250509050919050565b60008060009054906101000a900473ffffffffffffffffffffffffffffffffffffffff16905090565b610b44611581565b73ffffffffffffffffffffffffffffffffffffffff16610b62610b13565b73ffffffffffffffffffffffffffffffffffffffff1614610bb8576040517f08c379a0000000000000000000000000000000000000000000000000000000008152600401610baf90611d66565b60405180910390fd5b600073ffffffffffffffffffffffffffffffffffffffff16600560008473ffffffffffffffffffffffffffffffffffffffff1673ffffffffffffffffffffffffffffffffffffffff16815260200190815260200160002060000160019054906101000a900473ffffffffffffffffffffffffffffffffffffffff1673ffffffffffffffffffffffffffffffffffffffff1614610c89576040517f08c379a0000000000000000000000000000000000000000000000000000000008152600401610c8090611df8565b60405180910390fd5b806001541015610cce576040517f08c379a0000000000000000000000000000000000000000000000000000000008152600401610cc590611e8a565b60405180910390fd5b60006040518060a0016040528060006001811115610cef57610cee611734565b5b81526020018473ffffffffffffffffffffffffffffffffffffffff168152602001600584610d1d9190611b3b565b84610d289190611b6c565b81526020016000815260200142815250905080600560008573ffffffffffffffffffffffffffffffffffffffff1673ffffffffffffffffffffffffffffffffffffffff16815260200190815260200160002060008201518160000160006101000a81548160ff02191690836001811115610da557610da4611734565b5b021790555060208201518160000160016101000a81548173ffffffffffffffffffffffffffffffffffffffff021916908373ffffffffffffffffffffffffffffffffffffffff1602179055506040820151816001015560608201518160020155608082015181600301559050508160016000828254610e249190611b6c565b92505081905550600460009054906101000a900473ffffffffffffffffffffffffffffffffffffffff1673ffffffffffffffffffffffffffffffffffffffff1663a9059cbb84600585610e779190611b3b565b6040518363ffffffff167c0100000000000000000000000000000000000000000000000000000000028152600401610eb0929190611c8c565b602060405180830381600087803b158015610eca57600080fd5b505af1158015610ede573d6000803e3d6000fd5b505050506040513d601f19601f82011682018060405250810190610f029190611ced565b50505050565b610f10611581565b73ffffffffffffffffffffffffffffffffffffffff16610f2e610b13565b73ffffffffffffffffffffffffffffffffffffffff1614610f84576040517f08c379a0000000000000000000000000000000000000000000000000000000008152600401610f7b90611d66565b60405180910390fd5b600354811015610fc9576040517f08c379a0000000000000000000000000000000000000000000000000000000008152600401610fc090611f1c565b60405180910390fd5b600460009054906101000a900473ffffffffffffffffffffffffffffffffffffffff1673ffffffffffffffffffffffffffffffffffffffff1663a9059cbb83836040518363ffffffff167c0100000000000000000000000000000000000000000000000000000000028152600401611042929190611c8c565b602060405180830381600087803b15801561105c57600080fd5b505af1158015611070573d6000803e3d6000fd5b505050506040513d601f19601f820116820180604052508101906110949190611ced565b5080600360008282546110a79190611b6c565b925050819055505050565b60015481565b6110c0611581565b73ffffffffffffffffffffffffffffffffffffffff166110de610b13565b73ffffffffffffffffffffffffffffffffffffffff1614611134576040517f08c379a000000000000000000000000000000000000000000000000000000000815260040161112b90611d66565b60405180910390fd5b600073ffffffffffffffffffffffffffffffffffffffff16600560008473ffffffffffffffffffffffffffffffffffffffff1673ffffffffffffffffffffffffffffffffffffffff16815260200190815260200160002060000160019054906101000a900473ffffffffffffffffffffffffffffffffffffffff1673ffffffffffffffffffffffffffffffffffffffff1614611205576040517f08c379a00000000000000000000000000000000000000000000000000000000081526004016111fc90611fae565b60405180910390fd5b80600254101561124a576040517f08c379a000000000000000000000000000000000000000000000000000000000815260040161124190612040565b60405180910390fd5b60006040518060a0016040528060018081111561126a57611269611734565b5b81526020018473ffffffffffffffffffffffffffffffffffffffff168152602001600a846112989190611b3b565b846112a39190611b6c565b81526020016000815260200142815250905080600560008573ffffffffffffffffffffffffffffffffffffffff1673ffffffffffffffffffffffffffffffffffffffff16815260200190815260200160002060008201518160000160006101000a81548160ff021916908360018111156113205761131f611734565b5b021790555060208201518160000160016101000a81548173ffffffffffffffffffffffffffffffffffffffff021916908373ffffffffffffffffffffffffffffffffffffffff160217905550604082015181600101556060820151816002015560808201518160030155905050816002600082825461139f9190611b6c565b92505081905550600460009054906101000a900473ffffffffffffffffffffffffffffffffffffffff1673ffffffffffffffffffffffffffffffffffffffff1663a9059cbb84600a856113f29190611b3b565b6040518363ffffffff167c010000000000000000000000000000000000000000000000000000000002815260040161142b929190611c8c565b602060405180830381600087803b15801561144557600080fd5b505af1158015611459573d6000803e3d6000fd5b505050506040513d601f19601f8201168201806040525081019061147d9190611ced565b50505050565b60035481565b611491611581565b73ffffffffffffffffffffffffffffffffffffffff166114af610b13565b73ffffffffffffffffffffffffffffffffffffffff1614611505576040517f08c379a00000000000000000000000000000000000000000000000000000000081526004016114fc90611d66565b60405180910390fd5b600073ffffffffffffffffffffffffffffffffffffffff168173ffffffffffffffffffffffffffffffffffffffff161415611575576040517f08c379a000000000000000000000000000000000000000000000000000000000815260040161156c906120d2565b60405180910390fd5b61157e81611589565b50565b600033905090565b60008060009054906101000a900473ffffffffffffffffffffffffffffffffffffffff169050816000806101000a81548173ffffffffffffffffffffffffffffffffffffffff021916908373ffffffffffffffffffffffffffffffffffffffff1602179055508173ffffffffffffffffffffffffffffffffffffffff168173ffffffffffffffffffffffffffffffffffffffff167f8be0079c531659141344cd1fd0a4f28419497f9722a3daafe3b4186f6b6457e060405160405180910390a35050565b6040518060a001604052806000600181111561166c5761166b611734565b5b8152602001600073ffffffffffffffffffffffffffffffffffffffff1681526020016000815260200160008152602001600081525090565b600080fd5b600073ffffffffffffffffffffffffffffffffffffffff82169050919050565b60006116d4826116a9565b9050919050565b6116e4816116c9565b81146116ef57600080fd5b50565b600081359050611701816116db565b92915050565b60006020828403121561171d5761171c6116a4565b5b600061172b848285016116f2565b91505092915050565b7f4e487b7100000000000000000000000000000000000000000000000000000000600052602160045260246000fd5b6002811061177457611773611734565b5b50565b600081905061178582611763565b919050565b600061179582611777565b9050919050565b6117a58161178a565b82525050565b6117b4816116c9565b82525050565b6000819050919050565b6117cd816117ba565b82525050565b600060a0820190506117e8600083018861179c565b6117f560208301876117ab565b61180260408301866117c4565b61180f60608301856117c4565b61181c60808301846117c4565b9695505050505050565b600060208201905061183b60008301846117c4565b92915050565b61184a8161178a565b82525050565b611859816116c9565b82525050565b611868816117ba565b82525050565b60a0820160008201516118846000850182611841565b5060208201516118976020850182611850565b5060408201516118aa604085018261185f565b5060608201516118bd606085018261185f565b5060808201516118d0608085018261185f565b50505050565b600060a0820190506118eb600083018461186e565b92915050565b600060208201905061190660008301846117ab565b92915050565b611915816117ba565b811461192057600080fd5b50565b6000813590506119328161190c565b92915050565b6000806040838503121561194f5761194e6116a4565b5b600061195d858286016116f2565b925050602061196e85828601611923565b9150509250929050565b600082825260208201905092915050565b7f796f752063616e206e6f742061636373657373207468697320696e666f726d6160008201527f74696f6e00000000000000000000000000000000000000000000000000000000602082015250565b60006119e5602483611978565b91506119f082611989565b604082019050919050565b60006020820190508181036000830152611a14816119d8565b9050919050565b7f4e487b7100000000000000000000000000000000000000000000000000000000600052601160045260246000fd5b6000611a55826117ba565b9150611a60836117ba565b9250827fffffffffffffffffffffffffffffffffffffffffffffffffffffffffffffffff03821115611a9557611a94611a1b565b5b828201905092915050565b7f596f7572206163636f756e74206973207374696c6c2066726f7a656e00000000600082015250565b6000611ad6601c83611978565b9150611ae182611aa0565b602082019050919050565b60006020820190508181036000830152611b0581611ac9565b9050919050565b7f4e487b7100000000000000000000000000000000000000000000000000000000600052601260045260246000fd5b6000611b46826117ba565b9150611b51836117ba565b925082611b6157611b60611b0c565b5b828204905092915050565b6000611b77826117ba565b9150611b82836117ba565b925082821015611b9557611b94611a1b565b5b828203905092915050565b7f796f7520616c72656164792075736520796f757220616d6f756e742062616c6160008201527f6e636520666f722074686973206d6f6e74680000000000000000000000000000602082015250565b6000611bfc603283611978565b9150611c0782611ba0565b604082019050919050565b60006020820190508181036000830152611c2b81611bef565b9050919050565b6000611c3d826117ba565b9150611c48836117ba565b9250817fffffffffffffffffffffffffffffffffffffffffffffffffffffffffffffffff0483118215151615611c8157611c80611a1b565b5b828202905092915050565b6000604082019050611ca160008301856117ab565b611cae60208301846117c4565b9392505050565b60008115159050919050565b611cca81611cb5565b8114611cd557600080fd5b50565b600081519050611ce781611cc1565b92915050565b600060208284031215611d0357611d026116a4565b5b6000611d1184828501611cd8565b91505092915050565b7f4f776e61626c653a2063616c6c6572206973206e6f7420746865206f776e6572600082015250565b6000611d50602083611978565b9150611d5b82611d1a565b602082019050919050565b60006020820190508181036000830152611d7f81611d43565b9050919050565b7f6f6e2074686973206164647265737320466f756e64657220616c72656164792060008201527f6578697374730000000000000000000000000000000000000000000000000000602082015250565b6000611de2602683611978565b9150611ded82611d86565b604082019050919050565b60006020820190508181036000830152611e1181611dd5565b9050919050565b7f43616e206e6f74206164642061206e657720666f756e6465722062656361757360008201527f652074686520746f6b656e732061726520657868617573746564000000000000602082015250565b6000611e74603a83611978565b9150611e7f82611e18565b604082019050919050565b60006020820190508181036000830152611ea381611e67565b9050919050565b7f73686f756c64206e6f74206578636565642074686520746f74616c2062616c6160008201527f6e6365206f6620746f6b656e7320736f6c640000000000000000000000000000602082015250565b6000611f06603283611978565b9150611f1182611eaa565b604082019050919050565b60006020820190508181036000830152611f3581611ef9565b9050919050565b7f6f6e2074686973206164647265737320656d706c6f79656520616c726561647960008201527f2065786973747300000000000000000000000000000000000000000000000000602082015250565b6000611f98602783611978565b9150611fa382611f3c565b604082019050919050565b60006020820190508181036000830152611fc781611f8b565b9050919050565b7f43616e206e6f74206164642061206e657720656d706c6f79656520626563617560008201527f73652074686520746f6b656e7320617265206578686175737465640000000000602082015250565b600061202a603b83611978565b915061203582611fce565b604082019050919050565b600060208201905081810360008301526120598161201d565b9050919050565b7f4f776e61626c653a206e6577206f776e657220697320746865207a65726f206160008201527f6464726573730000000000000000000000000000000000000000000000000000602082015250565b60006120bc602683611978565b91506120c782612060565b604082019050919050565b600060208201905081810360008301526120eb816120af565b905091905056fea2646970667358221220f6327bd0bfc839da407a70e8525c907780c9f02e17564454e640b1d6e0ce24fe64736f6c6343000809003360806040523480156200001157600080fd5b506040518060400160405280600a81526020017f4661737420546f6b656e000000000000000000000000000000000000000000008152506040518060400160405280600281526020017f46540000000000000000000000000000000000000000000000000000000000008152508160039080519060200190620000969291906200026b565b508060049080519060200190620000af9291906200026b565b505050620000d033620f4240620000d6640100000000026401000000009004565b620004c7565b600073ffffffffffffffffffffffffffffffffffffffff168273ffffffffffffffffffffffffffffffffffffffff16141562000149576040517f08c379a000000000000000000000000000000000000000000000000000000000815260040162000140906200037c565b60405180910390fd5b620001666000838362000261640100000000026401000000009004565b80600260008282546200017a9190620003d7565b92505081905550806000808473ffffffffffffffffffffffffffffffffffffffff1673ffffffffffffffffffffffffffffffffffffffff1681526020019081526020016000206000828254620001d19190620003d7565b925050819055508173ffffffffffffffffffffffffffffffffffffffff16600073ffffffffffffffffffffffffffffffffffffffff167fddf252ad1be2c89b69c2b068fc378daa952ba7f163c4a11628f55a4df523b3ef8360405162000238919062000445565b60405180910390a36200025d6000838362000266640100000000026401000000009004565b5050565b505050565b505050565b828054620002799062000491565b90600052602060002090601f0160209004810192826200029d5760008555620002e9565b82601f10620002b857805160ff1916838001178555620002e9565b82800160010185558215620002e9579182015b82811115620002e8578251825591602001919060010190620002cb565b5b509050620002f89190620002fc565b5090565b5b8082111562000317576000816000905550600101620002fd565b5090565b600082825260208201905092915050565b7f45524332303a206d696e7420746f20746865207a65726f206164647265737300600082015250565b600062000364601f836200031b565b915062000371826200032c565b602082019050919050565b60006020820190508181036000830152620003978162000355565b9050919050565b6000819050919050565b7f4e487b7100000000000000000000000000000000000000000000000000000000600052601160045260246000fd5b6000620003e4826200039e565b9150620003f1836200039e565b9250827fffffffffffffffffffffffffffffffffffffffffffffffffffffffffffffffff03821115620004295762000428620003a8565b5b828201905092915050565b6200043f816200039e565b82525050565b60006020820190506200045c600083018462000434565b92915050565b7f4e487b7100000000000000000000000000000000000000000000000000000000600052602260045260246000fd5b60006002820490506001821680620004aa57607f821691505b60208210811415620004c157620004c062000462565b5b50919050565b61128580620004d76000396000f3fe608060405234801561001057600080fd5b50600436106100c6576000357c010000000000000000000000000000000000000000000000000000000090048063395093511161008e578063395093511461018557806370a08231146101b557806395d89b41146101e5578063a457c2d714610203578063a9059cbb14610233578063dd62ed3e14610263576100c6565b806306fdde03146100cb578063095ea7b3146100e957806318160ddd1461011957806323b872dd14610137578063313ce56714610167575b600080fd5b6100d3610293565b6040516100e09190610b3f565b60405180910390f35b61010360048036038101906100fe9190610bfa565b610325565b6040516101109190610c55565b60405180910390f35b610121610348565b60405161012e9190610c7f565b60405180910390f35b610151600480360381019061014c9190610c9a565b610352565b60405161015e9190610c55565b60405180910390f35b61016f610381565b60405161017c9190610d09565b60405180910390f35b61019f600480360381019061019a9190610bfa565b61038a565b6040516101ac9190610c55565b60405180910390f35b6101cf60048036038101906101ca9190610d24565b6103c1565b6040516101dc9190610c7f565b60405180910390f35b6101ed610409565b6040516101fa9190610b3f565b60405180910390f35b61021d60048036038101906102189190610bfa565b61049b565b60405161022a9190610c55565b60405180910390f35b61024d60048036038101906102489190610bfa565b610512565b60405161025a9190610c55565b60405180910390f35b61027d60048036038101906102789190610d51565b610535565b60405161028a9190610c7f565b60405180910390f35b6060600380546102a290610dc0565b80601f01602080910402602001604051908101604052809291908181526020018280546102ce90610dc0565b801561031b5780601f106102f05761010080835404028352916020019161031b565b820191906000526020600020905b8154815290600101906020018083116102fe57829003601f168201915b5050505050905090565b6000806103306105bc565b905061033d8185856105c4565b600191505092915050565b6000600254905090565b60008061035d6105bc565b905061036a85828561078f565b61037585858561081b565b60019150509392505050565b60006012905090565b6000806103956105bc565b90506103b68185856103a78589610535565b6103b19190610e21565b6105c4565b600191505092915050565b60008060008373ffffffffffffffffffffffffffffffffffffffff1673ffffffffffffffffffffffffffffffffffffffff168152602001908152602001600020549050919050565b60606004805461041890610dc0565b80601f016020809104026020016040519081016040528092919081815260200182805461044490610dc0565b80156104915780601f1061046657610100808354040283529160200191610491565b820191906000526020600020905b81548152906001019060200180831161047457829003601f168201915b5050505050905090565b6000806104a66105bc565b905060006104b48286610535565b9050838110156104f9576040517f08c379a00000000000000000000000000000000000000000000000000000000081526004016104f090610ee9565b60405180910390fd5b61050682868684036105c4565b60019250505092915050565b60008061051d6105bc565b905061052a81858561081b565b600191505092915050565b6000600160008473ffffffffffffffffffffffffffffffffffffffff1673ffffffffffffffffffffffffffffffffffffffff16815260200190815260200160002060008373ffffffffffffffffffffffffffffffffffffffff1673ffffffffffffffffffffffffffffffffffffffff16815260200190815260200160002054905092915050565b600033905090565b600073ffffffffffffffffffffffffffffffffffffffff168373ffffffffffffffffffffffffffffffffffffffff161415610634576040517f08c379a000000000000000000000000000000000000000000000000000000000815260040161062b90610f7b565b60405180910390fd5b600073ffffffffffffffffffffffffffffffffffffffff168273ffffffffffffffffffffffffffffffffffffffff1614156106a4576040517f08c379a000000000000000000000000000000000000000000000000000000000815260040161069b9061100d565b60405180910390fd5b80600160008573ffffffffffffffffffffffffffffffffffffffff1673ffffffffffffffffffffffffffffffffffffffff16815260200190815260200160002060008473ffffffffffffffffffffffffffffffffffffffff1673ffffffffffffffffffffffffffffffffffffffff168152602001908152602001600020819055508173ffffffffffffffffffffffffffffffffffffffff168373ffffffffffffffffffffffffffffffffffffffff167f8c5be1e5ebec7d5bd14f71427d1e84f3dd0314c0f7b2291e5b200ac8c7c3b925836040516107829190610c7f565b60405180910390a3505050565b600061079b8484610535565b90507fffffffffffffffffffffffffffffffffffffffffffffffffffffffffffffffff81146108155781811015610807576040517f08c379a00000000000000000000000000000000000000000000000000000000081526004016107fe90611079565b60405180910390fd5b61081484848484036105c4565b5b50505050565b600073ffffffffffffffffffffffffffffffffffffffff168373ffffffffffffffffffffffffffffffffffffffff16141561088b576040517f08c379a00000000000000000000000000000000000000000000000000000000081526004016108829061110b565b60405180910390fd5b600073ffffffffffffffffffffffffffffffffffffffff168273ffffffffffffffffffffffffffffffffffffffff1614156108fb576040517f08c379a00000000000000000000000000000000000000000000000000000000081526004016108f29061119d565b60405180910390fd5b610906838383610a9c565b60008060008573ffffffffffffffffffffffffffffffffffffffff1673ffffffffffffffffffffffffffffffffffffffff1681526020019081526020016000205490508181101561098c576040517f08c379a00000000000000000000000000000000000000000000000000000000081526004016109839061122f565b60405180910390fd5b8181036000808673ffffffffffffffffffffffffffffffffffffffff1673ffffffffffffffffffffffffffffffffffffffff16815260200190815260200160002081905550816000808573ffffffffffffffffffffffffffffffffffffffff1673ffffffffffffffffffffffffffffffffffffffff1681526020019081526020016000206000828254610a1f9190610e21565b925050819055508273ffffffffffffffffffffffffffffffffffffffff168473ffffffffffffffffffffffffffffffffffffffff167fddf252ad1be2c89b69c2b068fc378daa952ba7f163c4a11628f55a4df523b3ef84604051610a839190610c7f565b60405180910390a3610a96848484610aa1565b50505050565b505050565b505050565b600081519050919050565b600082825260208201905092915050565b60005b83811015610ae0578082015181840152602081019050610ac5565b83811115610aef576000848401525b50505050565b6000601f19601f8301169050919050565b6000610b1182610aa6565b610b1b8185610ab1565b9350610b2b818560208601610ac2565b610b3481610af5565b840191505092915050565b60006020820190508181036000830152610b598184610b06565b905092915050565b600080fd5b600073ffffffffffffffffffffffffffffffffffffffff82169050919050565b6000610b9182610b66565b9050919050565b610ba181610b86565b8114610bac57600080fd5b50565b600081359050610bbe81610b98565b92915050565b6000819050919050565b610bd781610bc4565b8114610be257600080fd5b50565b600081359050610bf481610bce565b92915050565b60008060408385031215610c1157610c10610b61565b5b6000610c1f85828601610baf565b9250506020610c3085828601610be5565b9150509250929050565b60008115159050919050565b610c4f81610c3a565b82525050565b6000602082019050610c6a6000830184610c46565b92915050565b610c7981610bc4565b82525050565b6000602082019050610c946000830184610c70565b92915050565b600080600060608486031215610cb357610cb2610b61565b5b6000610cc186828701610baf565b9350506020610cd286828701610baf565b9250506040610ce386828701610be5565b9150509250925092565b600060ff82169050919050565b610d0381610ced565b82525050565b6000602082019050610d1e6000830184610cfa565b92915050565b600060208284031215610d3a57610d39610b61565b5b6000610d4884828501610baf565b91505092915050565b60008060408385031215610d6857610d67610b61565b5b6000610d7685828601610baf565b9250506020610d8785828601610baf565b9150509250929050565b7f4e487b7100000000000000000000000000000000000000000000000000000000600052602260045260246000fd5b60006002820490506001821680610dd857607f821691505b60208210811415610dec57610deb610d91565b5b50919050565b7f4e487b7100000000000000000000000000000000000000000000000000000000600052601160045260246000fd5b6000610e2c82610bc4565b9150610e3783610bc4565b9250827fffffffffffffffffffffffffffffffffffffffffffffffffffffffffffffffff03821115610e6c57610e6b610df2565b5b828201905092915050565b7f45524332303a2064656372656173656420616c6c6f77616e63652062656c6f7760008201527f207a65726f000000000000000000000000000000000000000000000000000000602082015250565b6000610ed3602583610ab1565b9150610ede82610e77565b604082019050919050565b60006020820190508181036000830152610f0281610ec6565b9050919050565b7f45524332303a20617070726f76652066726f6d20746865207a65726f2061646460008201527f7265737300000000000000000000000000000000000000000000000000000000602082015250565b6000610f65602483610ab1565b9150610f7082610f09565b604082019050919050565b60006020820190508181036000830152610f9481610f58565b9050919050565b7f45524332303a20617070726f766520746f20746865207a65726f20616464726560008201527f7373000000000000000000000000000000000000000000000000000000000000602082015250565b6000610ff7602283610ab1565b915061100282610f9b565b604082019050919050565b6000602082019050818103600083015261102681610fea565b9050919050565b7f45524332303a20696e73756666696369656e7420616c6c6f77616e6365000000600082015250565b6000611063601d83610ab1565b915061106e8261102d565b602082019050919050565b6000602082019050818103600083015261109281611056565b9050919050565b7f45524332303a207472616e736665722066726f6d20746865207a65726f20616460008201527f6472657373000000000000000000000000000000000000000000000000000000602082015250565b60006110f5602583610ab1565b915061110082611099565b604082019050919050565b60006020820190508181036000830152611124816110e8565b9050919050565b7f45524332303a207472616e7366657220746f20746865207a65726f206164647260008201527f6573730000000000000000000000000000000000000000000000000000000000602082015250565b6000611187602383610ab1565b91506111928261112b565b604082019050919050565b600060208201905081810360008301526111b68161117a565b9050919050565b7f45524332303a207472616e7366657220616d6f756e742065786365656473206260008201527f616c616e63650000000000000000000000000000000000000000000000000000602082015250565b6000611219602683610ab1565b9150611224826111bd565b604082019050919050565b600060208201905081810360008301526112488161120c565b905091905056fea26469706673582212205498a24c198c1cc59f296629517e97525de737ade12f64c254e1e4b07680c30d64736f6c63430008090033",
  "immutableReferences": {},
  "source": "// SPDX-License-Identifier: MIT\npragma solidity ^0.8.9;\n\n/// Library imports\nimport \"@openzeppelin/contracts/access/Ownable.sol\";\n\n/// Local imports\nimport \"./FastToken.sol\";\n\ncontract Distributer is Ownable {\n\n    uint256 public foundersTotalSupply;\n    uint256 public employeesTotalSupply;\n    uint256 public soldTokensTotalSupply;\n    FastToken private fastToken;\n\n    constructor() { \n\n        fastToken = new FastToken();\n        foundersTotalSupply = 400000 * 10 ** 18;\n        employeesTotalSupply = 200000 * 10 ** 18;\n        soldTokensTotalSupply = 400000 * 10 ** 18;\n        require((fastToken.totalSupply() * 10 ** 18) == (foundersTotalSupply + employeesTotalSupply + soldTokensTotalSupply), \"does not match total supply\"); \n    }\n  \n    mapping(address => Owners) public owners;\n     \n    enum OwnerType { Founder, Employee }\n\n    struct Owners {\n        OwnerType ownerType;\n        address owner;\n        uint256 totalAmount; \n        uint256 monthsClaimed;\n        uint256 allocationTime;\n    }\n\n    /// Owner Only functions\n    function addFounder(address founder_, uint256 amount_) public onlyOwner {\n\n        require(owners[founder_].owner == address(0), \"on this address Founder already exists\");\n        require(foundersTotalSupply >= amount_, \"Can not add a new founder because the tokens are exhausted\");\n        Owners memory owner = Owners(OwnerType.Founder,\n                                     founder_,\n                                     (amount_ - (amount_ / 5)),\n                                     0,\n                                     block.timestamp);\n        \n        owners[founder_] = owner;\n        foundersTotalSupply -= amount_;\n        fastToken.transfer(founder_, amount_ / 5);   \n    } \n\n    function addEmployee(address employee_, uint256 amount_) public onlyOwner {\n\n        require(owners[employee_].owner == address(0), \"on this address employee already exists\");\n        require(employeesTotalSupply >= amount_, \"Can not add a new employee because the tokens are exhausted\");\n        Owners memory owner = Owners(OwnerType.Employee,\n                                     employee_,\n                                     (amount_ - (amount_ / 10)),\n                                     0,\n                                     block.timestamp);\n\n        owners[employee_] = owner;\n        employeesTotalSupply -= amount_;\n        fastToken.transfer(employee_, amount_ / 10);\n    }\n\n    function soldTokensManagement(address buyer_, uint256 amount_) public payable onlyOwner {\n\n        require(amount_ >= soldTokensTotalSupply, \"should not exceed the total balance of tokens sold\");\n        fastToken.transfer(buyer_, amount_);\n        soldTokensTotalSupply -= amount_;\n    }\n\n    /// Owners API\n    function currentStatus(address owner_) public view returns(Owners memory) {\n\n        require(msg.sender != owners[owner_].owner, \"you can not accsess this information\");\n        return owners[owner_];\n    }\n\n    function claim() public payable {\n\n        require(msg.sender == owners[msg.sender].owner, \"you can not accsess this information\");\n        uint256 ownerPercentsAmounts = 0;\n        if (owners[msg.sender].ownerType == OwnerType.Employee) {\n            require((owners[msg.sender].allocationTime + 180 days) > block.timestamp, \"Your account is still frozen\");\n            ownerPercentsAmounts = (owners[msg.sender].totalAmount / 10);\n        } else {\n            require((owners[msg.sender].allocationTime + 730 days) > block.timestamp, \"Your account is still frozen\");\n            ownerPercentsAmounts = (owners[msg.sender].totalAmount / 5);\n        }\n        uint256 day = (block.timestamp - (owners[msg.sender].allocationTime)) / 1 days;\n        \n        day = (day / 31) + 1;\n        require(day > owners[msg.sender].monthsClaimed,\"you already use your amount balance for this month\");\n        fastToken.transfer(msg.sender, day * ownerPercentsAmounts);\n        owners[msg.sender].totalAmount -= (day * ownerPercentsAmounts);\n        owners[msg.sender].monthsClaimed = day;\n    }  \n}\n",
  "sourcePath": "/home/karen/distribution contract/contracts/Distributer.sol",
  "compiler": {
    "name": "solc",
    "version": "0.8.9+commit.e5eed63a.Emscripten.clang"
  },
  "schemaVersion": "3.4.7",
  "updatedAt": "2022-06-01T06:07:15.769Z",
  "devdoc": {
    "kind": "dev",
    "methods": {
      "owner()": {
        "details": "Returns the address of the current owner."
      },
      "renounceOwnership()": {
        "details": "Leaves the contract without owner. It will not be possible to call `onlyOwner` functions anymore. Can only be called by the current owner. NOTE: Renouncing ownership will leave the contract without an owner, thereby removing any functionality that is only available to the owner."
      },
      "transferOwnership(address)": {
        "details": "Transfers ownership of the contract to a new account (`newOwner`). Can only be called by the current owner."
      }
    },
    "version": 1
  },
  "userdoc": {
    "kind": "user",
    "methods": {
      "addFounder(address,uint256)": {
        "notice": "Owner Only functions"
      },
      "currentStatus(address)": {
        "notice": "Owners API"
      }
    },
    "version": 1
  }
}