{
  "contractName": "Distributer",
  "abi": [
    {
      "inputs": [],
      "stateMutability": "nonpayable",
      "type": "constructor"
    },
    {
      "anonymous": false,
      "inputs": [
        {
          "indexed": true,
          "internalType": "address",
          "name": "previousOwner",
          "type": "address"
        },
        {
          "indexed": true,
          "internalType": "address",
          "name": "newOwner",
          "type": "address"
        }
      ],
      "name": "OwnershipTransferred",
      "type": "event"
    },
    {
      "inputs": [],
      "name": "employeesTotalSupply",
      "outputs": [
        {
          "internalType": "uint256",
          "name": "",
          "type": "uint256"
        }
      ],
      "stateMutability": "view",
      "type": "function"
    },
    {
      "inputs": [],
      "name": "foundersTotalSupply",
      "outputs": [
        {
          "internalType": "uint256",
          "name": "",
          "type": "uint256"
        }
      ],
      "stateMutability": "view",
      "type": "function"
    },
    {
      "inputs": [],
      "name": "owner",
      "outputs": [
        {
          "internalType": "address",
          "name": "",
          "type": "address"
        }
      ],
      "stateMutability": "view",
      "type": "function"
    },
    {
      "inputs": [
        {
          "internalType": "address",
          "name": "",
          "type": "address"
        }
      ],
      "name": "owners",
      "outputs": [
        {
          "internalType": "enum Distributer.OwnerStatus",
          "name": "status",
          "type": "uint8"
        },
        {
          "internalType": "enum Distributer.OwnerType",
          "name": "user",
          "type": "uint8"
        },
        {
          "internalType": "address",
          "name": "owner",
          "type": "address"
        },
        {
          "internalType": "uint256",
          "name": "amount",
          "type": "uint256"
        },
        {
          "internalType": "uint256",
          "name": "activeAmount",
          "type": "uint256"
        },
        {
          "internalType": "uint256",
          "name": "freezingTime",
          "type": "uint256"
        },
        {
          "internalType": "uint256",
          "name": "currentTime",
          "type": "uint256"
        }
      ],
      "stateMutability": "view",
      "type": "function"
    },
    {
      "inputs": [],
      "name": "renounceOwnership",
      "outputs": [],
      "stateMutability": "nonpayable",
      "type": "function"
    },
    {
      "inputs": [],
      "name": "soldTokensTotalSupply",
      "outputs": [
        {
          "internalType": "uint256",
          "name": "",
          "type": "uint256"
        }
      ],
      "stateMutability": "view",
      "type": "function"
    },
    {
      "inputs": [
        {
          "internalType": "address",
          "name": "newOwner",
          "type": "address"
        }
      ],
      "name": "transferOwnership",
      "outputs": [],
      "stateMutability": "nonpayable",
      "type": "function"
    },
    {
      "inputs": [
        {
          "internalType": "address",
          "name": "founder",
          "type": "address"
        },
        {
          "internalType": "uint256",
          "name": "amount",
          "type": "uint256"
        }
      ],
      "name": "addFounder",
      "outputs": [],
      "stateMutability": "nonpayable",
      "type": "function"
    },
    {
      "inputs": [
        {
          "internalType": "address",
          "name": "employee",
          "type": "address"
        },
        {
          "internalType": "uint256",
          "name": "amount",
          "type": "uint256"
        }
      ],
      "name": "addEmployee",
      "outputs": [],
      "stateMutability": "nonpayable",
      "type": "function"
    },
    {
      "inputs": [
        {
          "internalType": "address",
          "name": "buyer",
          "type": "address"
        },
        {
          "internalType": "uint256",
          "name": "amount",
          "type": "uint256"
        }
      ],
      "name": "soldTokensManagement",
      "outputs": [],
      "stateMutability": "nonpayable",
      "type": "function"
    },
    {
      "inputs": [
        {
          "internalType": "address",
          "name": "owner",
          "type": "address"
        }
      ],
      "name": "currentStatus",
      "outputs": [
        {
          "components": [
            {
              "internalType": "enum Distributer.OwnerStatus",
              "name": "status",
              "type": "uint8"
            },
            {
              "internalType": "enum Distributer.OwnerType",
              "name": "user",
              "type": "uint8"
            },
            {
              "internalType": "address",
              "name": "owner",
              "type": "address"
            },
            {
              "internalType": "uint256",
              "name": "amount",
              "type": "uint256"
            },
            {
              "internalType": "uint256",
              "name": "activeAmount",
              "type": "uint256"
            },
            {
              "internalType": "uint256",
              "name": "freezingTime",
              "type": "uint256"
            },
            {
              "internalType": "uint256",
              "name": "currentTime",
              "type": "uint256"
            }
          ],
          "internalType": "struct Distributer.Owners",
          "name": "",
          "type": "tuple"
        }
      ],
      "stateMutability": "view",
      "type": "function"
    },
    {
      "inputs": [],
      "name": "ownersToUse",
      "outputs": [],
      "stateMutability": "payable",
      "type": "function"
    }
  ],
  "bytecode": "0x60806040523480156200001157600080fd5b50620000446200002f62000313640100000000026401000000009004565b6200031b640100000000026401000000009004565b33600160006101000a81548173ffffffffffffffffffffffffffffffffffffffff021916908373ffffffffffffffffffffffffffffffffffffffff1602179055506040516200009390620003df565b604051809103906000f080158015620000b0573d6000803e3d6000fd5b50600560006101000a81548173ffffffffffffffffffffffffffffffffffffffff021916908373ffffffffffffffffffffffffffffffffffffffff160217905550620f4240600560009054906101000a900473ffffffffffffffffffffffffffffffffffffffff1673ffffffffffffffffffffffffffffffffffffffff166318160ddd6040518163ffffffff167c010000000000000000000000000000000000000000000000000000000002815260040160206040518083038186803b1580156200017a57600080fd5b505afa1580156200018f573d6000803e3d6000fd5b505050506040513d601f19601f82011682018060405250810190620001b591906200042d565b14620001f8576040517f08c379a0000000000000000000000000000000000000000000000000000000008152600401620001ef90620004c0565b60405180910390fd5b600560009054906101000a900473ffffffffffffffffffffffffffffffffffffffff1673ffffffffffffffffffffffffffffffffffffffff1663095ea7b3600160009054906101000a900473ffffffffffffffffffffffffffffffffffffffff16620f42406040518363ffffffff167c01000000000000000000000000000000000000000000000000000000000281526004016200029892919062000574565b602060405180830381600087803b158015620002b357600080fd5b505af1158015620002c8573d6000803e3d6000fd5b505050506040513d601f19601f82011682018060405250810190620002ee9190620005de565b5062061a8060028190555062030d4060038190555062061a8060048190555062000610565b600033905090565b60008060009054906101000a900473ffffffffffffffffffffffffffffffffffffffff169050816000806101000a81548173ffffffffffffffffffffffffffffffffffffffff021916908373ffffffffffffffffffffffffffffffffffffffff1602179055508173ffffffffffffffffffffffffffffffffffffffff168173ffffffffffffffffffffffffffffffffffffffff167f8be0079c531659141344cd1fd0a4f28419497f9722a3daafe3b4186f6b6457e060405160405180910390a35050565b611c79806200272b83390190565b600080fd5b6000819050919050565b6200040781620003f2565b81146200041357600080fd5b50565b6000815190506200042781620003fc565b92915050565b600060208284031215620004465762000445620003ed565b5b6000620004568482850162000416565b91505092915050565b600082825260208201905092915050565b7f646f6573206e6f74206d6174636820746f74616c20737570706c790000000000600082015250565b6000620004a8601b836200045f565b9150620004b58262000470565b602082019050919050565b60006020820190508181036000830152620004db8162000499565b9050919050565b600073ffffffffffffffffffffffffffffffffffffffff82169050919050565b60006200050f82620004e2565b9050919050565b620005218162000502565b82525050565b6000819050919050565b6000819050919050565b60006200055c62000556620005508462000527565b62000531565b620003f2565b9050919050565b6200056e816200053b565b82525050565b60006040820190506200058b600083018562000516565b6200059a602083018462000563565b9392505050565b60008115159050919050565b620005b881620005a1565b8114620005c457600080fd5b50565b600081519050620005d881620005ad565b92915050565b600060208284031215620005f757620005f6620003ed565b5b60006200060784828501620005c7565b91505092915050565b61210b80620006206000396000f3fe6080604052600436106100c4576000357c0100000000000000000000000000000000000000000000000000000000900480638fa906b2116100815780638fa906b2146101c0578063c3d90d0d146101e9578063d3208c7a14610212578063e7fd9a131461023d578063e924c5fd14610266578063f2fde38b14610291576100c4565b8063022914a7146100c9578063035cd3551461010c5780635615dbbc14610116578063715018a6146101415780637b66e2b7146101585780638da5cb5b14610195575b600080fd5b3480156100d557600080fd5b506100f060048036038101906100eb9190611677565b6102ba565b604051610103979695949392919061178b565b60405180910390f35b610114610336565b005b34801561012257600080fd5b5061012b6107b3565b60405161013891906117fa565b60405180910390f35b34801561014d57600080fd5b506101566107b9565b005b34801561016457600080fd5b5061017f600480360381019061017a9190611677565b610841565b60405161018c91906118df565b60405180910390f35b3480156101a157600080fd5b506101aa610a5e565b6040516101b791906118fa565b60405180910390f35b3480156101cc57600080fd5b506101e760048036038101906101e29190611941565b610a87565b005b3480156101f557600080fd5b50610210600480360381019061020b9190611941565b610dfc565b005b34801561021e57600080fd5b50610227611037565b60405161023491906117fa565b60405180910390f35b34801561024957600080fd5b50610264600480360381019061025f9190611941565b61103d565b005b34801561027257600080fd5b5061027b6113af565b60405161028891906117fa565b60405180910390f35b34801561029d57600080fd5b506102b860048036038101906102b39190611677565b6113b5565b005b60066020528060005260406000206000915090508060000160009054906101000a900460ff16908060000160019054906101000a900460ff16908060000160029054906101000a900473ffffffffffffffffffffffffffffffffffffffff16908060010154908060020154908060030154908060040154905087565b600660003373ffffffffffffffffffffffffffffffffffffffff1673ffffffffffffffffffffffffffffffffffffffff16815260200190815260200160002060000160029054906101000a900473ffffffffffffffffffffffffffffffffffffffff1673ffffffffffffffffffffffffffffffffffffffff163373ffffffffffffffffffffffffffffffffffffffff1614610406576040517f08c379a00000000000000000000000000000000000000000000000000000000081526004016103fd90611a04565b60405180910390fd5b42600660003373ffffffffffffffffffffffffffffffffffffffff1673ffffffffffffffffffffffffffffffffffffffff168152602001908152602001600020600401541161048a576040517f08c379a000000000000000000000000000000000000000000000000000000000815260040161048190611a70565b60405180910390fd5b600060018081111561049f5761049e6116a4565b5b600660003373ffffffffffffffffffffffffffffffffffffffff1673ffffffffffffffffffffffffffffffffffffffff16815260200190815260200160002060000160019054906101000a900460ff166001811115610501576105006116a4565b5b1461050e5761c350610512565b6127105b61ffff1690506000610570600660003373ffffffffffffffffffffffffffffffffffffffff1673ffffffffffffffffffffffffffffffffffffffff168152602001908152602001600020600401544261056b9190611abf565b6114ad565b90506000601e826105819190611b22565b90508283826105909190611b53565b61059a9190611bad565b90506000600660003373ffffffffffffffffffffffffffffffffffffffff1673ffffffffffffffffffffffffffffffffffffffff16815260200190815260200160002060000160006101000a81548160ff02191690836001811115610602576106016116a4565b5b0217905550600560009054906101000a900473ffffffffffffffffffffffffffffffffffffffff1673ffffffffffffffffffffffffffffffffffffffff1663a9059cbb33836040518363ffffffff167c0100000000000000000000000000000000000000000000000000000000028152600401610680929190611c03565b602060405180830381600087803b15801561069a57600080fd5b505af11580156106ae573d6000803e3d6000fd5b505050506040513d601f19601f820116820180604052508101906106d29190611c64565b5080600660003373ffffffffffffffffffffffffffffffffffffffff1673ffffffffffffffffffffffffffffffffffffffff16815260200190815260200160002060010160008282546107259190611abf565b925050819055506001601e8361073b9190611b22565b6107459190611bad565b915062278d00826107569190611b53565b600660003373ffffffffffffffffffffffffffffffffffffffff1673ffffffffffffffffffffffffffffffffffffffff16815260200190815260200160002060040160008282546107a79190611bad565b92505081905550505050565b60035481565b6107c16114d1565b73ffffffffffffffffffffffffffffffffffffffff166107df610a5e565b73ffffffffffffffffffffffffffffffffffffffff1614610835576040517f08c379a000000000000000000000000000000000000000000000000000000000815260040161082c90611cdd565b60405180910390fd5b61083f60006114d9565b565b61084961159d565b600660008373ffffffffffffffffffffffffffffffffffffffff1673ffffffffffffffffffffffffffffffffffffffff16815260200190815260200160002060000160029054906101000a900473ffffffffffffffffffffffffffffffffffffffff1673ffffffffffffffffffffffffffffffffffffffff163373ffffffffffffffffffffffffffffffffffffffff1614610919576040517f08c379a000000000000000000000000000000000000000000000000000000000815260040161091090611a04565b60405180910390fd5b600660008373ffffffffffffffffffffffffffffffffffffffff1673ffffffffffffffffffffffffffffffffffffffff1681526020019081526020016000206040518060e00160405290816000820160009054906101000a900460ff166001811115610988576109876116a4565b5b600181111561099a576109996116a4565b5b81526020016000820160019054906101000a900460ff1660018111156109c3576109c26116a4565b5b60018111156109d5576109d46116a4565b5b81526020016000820160029054906101000a900473ffffffffffffffffffffffffffffffffffffffff1673ffffffffffffffffffffffffffffffffffffffff1673ffffffffffffffffffffffffffffffffffffffff1681526020016001820154815260200160028201548152602001600382015481526020016004820154815250509050919050565b60008060009054906101000a900473ffffffffffffffffffffffffffffffffffffffff16905090565b610a8f6114d1565b73ffffffffffffffffffffffffffffffffffffffff16610aad610a5e565b73ffffffffffffffffffffffffffffffffffffffff1614610b03576040517f08c379a0000000000000000000000000000000000000000000000000000000008152600401610afa90611cdd565b60405180910390fd5b600073ffffffffffffffffffffffffffffffffffffffff16600660008473ffffffffffffffffffffffffffffffffffffffff1673ffffffffffffffffffffffffffffffffffffffff16815260200190815260200160002060000160029054906101000a900473ffffffffffffffffffffffffffffffffffffffff1673ffffffffffffffffffffffffffffffffffffffff1614610bd4576040517f08c379a0000000000000000000000000000000000000000000000000000000008152600401610bcb90611d6f565b60405180910390fd5b806002541015610c19576040517f08c379a0000000000000000000000000000000000000000000000000000000008152600401610c1090611e01565b60405180910390fd5b60006040518060e00160405280600180811115610c3957610c386116a4565b5b815260200160006001811115610c5257610c516116a4565b5b81526020018473ffffffffffffffffffffffffffffffffffffffff168152602001600584610c809190611b22565b84610c8b9190611abf565b8152602001600584610c9d9190611b22565b81526020016303c2670042610cb29190611bad565b81526020016303c2670042610cc79190611bad565b815250905080600660008573ffffffffffffffffffffffffffffffffffffffff1673ffffffffffffffffffffffffffffffffffffffff16815260200190815260200160002060008201518160000160006101000a81548160ff02191690836001811115610d3757610d366116a4565b5b021790555060208201518160000160016101000a81548160ff02191690836001811115610d6757610d666116a4565b5b021790555060408201518160000160026101000a81548173ffffffffffffffffffffffffffffffffffffffff021916908373ffffffffffffffffffffffffffffffffffffffff160217905550606082015181600101556080820151816002015560a0820151816003015560c082015181600401559050508160026000828254610df09190611abf565b92505081905550505050565b610e046114d1565b73ffffffffffffffffffffffffffffffffffffffff16610e22610a5e565b73ffffffffffffffffffffffffffffffffffffffff1614610e78576040517f08c379a0000000000000000000000000000000000000000000000000000000008152600401610e6f90611cdd565b60405180910390fd5b600160009054906101000a900473ffffffffffffffffffffffffffffffffffffffff1673ffffffffffffffffffffffffffffffffffffffff163373ffffffffffffffffffffffffffffffffffffffff161415610f09576040517f08c379a0000000000000000000000000000000000000000000000000000000008152600401610f0090611e6d565b60405180910390fd5b600454811015610f4e576040517f08c379a0000000000000000000000000000000000000000000000000000000008152600401610f4590611eff565b60405180910390fd5b600560009054906101000a900473ffffffffffffffffffffffffffffffffffffffff1673ffffffffffffffffffffffffffffffffffffffff1663a9059cbb83836040518363ffffffff167c0100000000000000000000000000000000000000000000000000000000028152600401610fc7929190611c03565b602060405180830381600087803b158015610fe157600080fd5b505af1158015610ff5573d6000803e3d6000fd5b505050506040513d601f19601f820116820180604052508101906110199190611c64565b50806004600082825461102c9190611abf565b925050819055505050565b60025481565b6110456114d1565b73ffffffffffffffffffffffffffffffffffffffff16611063610a5e565b73ffffffffffffffffffffffffffffffffffffffff16146110b9576040517f08c379a00000000000000000000000000000000000000000000000000000000081526004016110b090611cdd565b60405180910390fd5b600073ffffffffffffffffffffffffffffffffffffffff16600660008473ffffffffffffffffffffffffffffffffffffffff1673ffffffffffffffffffffffffffffffffffffffff16815260200190815260200160002060000160029054906101000a900473ffffffffffffffffffffffffffffffffffffffff1673ffffffffffffffffffffffffffffffffffffffff161461118a576040517f08c379a000000000000000000000000000000000000000000000000000000000815260040161118190611f91565b60405180910390fd5b8060035410156111cf576040517f08c379a00000000000000000000000000000000000000000000000000000000081526004016111c690612023565b60405180910390fd5b60006040518060e001604052806001808111156111ef576111ee6116a4565b5b8152602001600180811115611207576112066116a4565b5b81526020018473ffffffffffffffffffffffffffffffffffffffff168152602001600a846112359190611b22565b846112409190611abf565b8152602001600a846112529190611b22565b815260200162ed4e00426112669190611bad565b815260200162ed4e004261127a9190611bad565b815250905080600660008573ffffffffffffffffffffffffffffffffffffffff1673ffffffffffffffffffffffffffffffffffffffff16815260200190815260200160002060008201518160000160006101000a81548160ff021916908360018111156112ea576112e96116a4565b5b021790555060208201518160000160016101000a81548160ff0219169083600181111561131a576113196116a4565b5b021790555060408201518160000160026101000a81548173ffffffffffffffffffffffffffffffffffffffff021916908373ffffffffffffffffffffffffffffffffffffffff160217905550606082015181600101556080820151816002015560a0820151816003015560c0820151816004015590505081600360008282546113a39190611abf565b92505081905550505050565b60045481565b6113bd6114d1565b73ffffffffffffffffffffffffffffffffffffffff166113db610a5e565b73ffffffffffffffffffffffffffffffffffffffff1614611431576040517f08c379a000000000000000000000000000000000000000000000000000000000815260040161142890611cdd565b60405180910390fd5b600073ffffffffffffffffffffffffffffffffffffffff168173ffffffffffffffffffffffffffffffffffffffff1614156114a1576040517f08c379a0000000000000000000000000000000000000000000000000000000008152600401611498906120b5565b60405180910390fd5b6114aa816114d9565b50565b6000600162015180836114c09190611b22565b6114ca9190611bad565b9050919050565b600033905090565b60008060009054906101000a900473ffffffffffffffffffffffffffffffffffffffff169050816000806101000a81548173ffffffffffffffffffffffffffffffffffffffff021916908373ffffffffffffffffffffffffffffffffffffffff1602179055508173ffffffffffffffffffffffffffffffffffffffff168173ffffffffffffffffffffffffffffffffffffffff167f8be0079c531659141344cd1fd0a4f28419497f9722a3daafe3b4186f6b6457e060405160405180910390a35050565b6040518060e00160405280600060018111156115bc576115bb6116a4565b5b8152602001600060018111156115d5576115d46116a4565b5b8152602001600073ffffffffffffffffffffffffffffffffffffffff168152602001600081526020016000815260200160008152602001600081525090565b600080fd5b600073ffffffffffffffffffffffffffffffffffffffff82169050919050565b600061164482611619565b9050919050565b61165481611639565b811461165f57600080fd5b50565b6000813590506116718161164b565b92915050565b60006020828403121561168d5761168c611614565b5b600061169b84828501611662565b91505092915050565b7f4e487b7100000000000000000000000000000000000000000000000000000000600052602160045260246000fd5b600281106116e4576116e36116a4565b5b50565b60008190506116f5826116d3565b919050565b6000611705826116e7565b9050919050565b611715816116fa565b82525050565b6002811061172c5761172b6116a4565b5b50565b600081905061173d8261171b565b919050565b600061174d8261172f565b9050919050565b61175d81611742565b82525050565b61176c81611639565b82525050565b6000819050919050565b61178581611772565b82525050565b600060e0820190506117a0600083018a61170c565b6117ad6020830189611754565b6117ba6040830188611763565b6117c7606083018761177c565b6117d4608083018661177c565b6117e160a083018561177c565b6117ee60c083018461177c565b98975050505050505050565b600060208201905061180f600083018461177c565b92915050565b61181e816116fa565b82525050565b61182d81611742565b82525050565b61183c81611639565b82525050565b61184b81611772565b82525050565b60e0820160008201516118676000850182611815565b50602082015161187a6020850182611824565b50604082015161188d6040850182611833565b5060608201516118a06060850182611842565b5060808201516118b36080850182611842565b5060a08201516118c660a0850182611842565b5060c08201516118d960c0850182611842565b50505050565b600060e0820190506118f46000830184611851565b92915050565b600060208201905061190f6000830184611763565b92915050565b61191e81611772565b811461192957600080fd5b50565b60008135905061193b81611915565b92915050565b6000806040838503121561195857611957611614565b5b600061196685828601611662565b92505060206119778582860161192c565b9150509250929050565b600082825260208201905092915050565b7f796f752063616e206e6f7420616363657373207468697320696e666f726d617460008201527f696f6e0000000000000000000000000000000000000000000000000000000000602082015250565b60006119ee602383611981565b91506119f982611992565b604082019050919050565b60006020820190508181036000830152611a1d816119e1565b9050919050565b7f596f7572206163636f756e74206973207374696c6c2066726f7a656e00000000600082015250565b6000611a5a601c83611981565b9150611a6582611a24565b602082019050919050565b60006020820190508181036000830152611a8981611a4d565b9050919050565b7f4e487b7100000000000000000000000000000000000000000000000000000000600052601160045260246000fd5b6000611aca82611772565b9150611ad583611772565b925082821015611ae857611ae7611a90565b5b828203905092915050565b7f4e487b7100000000000000000000000000000000000000000000000000000000600052601260045260246000fd5b6000611b2d82611772565b9150611b3883611772565b925082611b4857611b47611af3565b5b828204905092915050565b6000611b5e82611772565b9150611b6983611772565b9250817fffffffffffffffffffffffffffffffffffffffffffffffffffffffffffffffff0483118215151615611ba257611ba1611a90565b5b828202905092915050565b6000611bb882611772565b9150611bc383611772565b9250827fffffffffffffffffffffffffffffffffffffffffffffffffffffffffffffffff03821115611bf857611bf7611a90565b5b828201905092915050565b6000604082019050611c186000830185611763565b611c25602083018461177c565b9392505050565b60008115159050919050565b611c4181611c2c565b8114611c4c57600080fd5b50565b600081519050611c5e81611c38565b92915050565b600060208284031215611c7a57611c79611614565b5b6000611c8884828501611c4f565b91505092915050565b7f4f776e61626c653a2063616c6c6572206973206e6f7420746865206f776e6572600082015250565b6000611cc7602083611981565b9150611cd282611c91565b602082019050919050565b60006020820190508181036000830152611cf681611cba565b9050919050565b7f6f6e2074686973206164647265737320466f756e64657220616c72656164792060008201527f6578697374730000000000000000000000000000000000000000000000000000602082015250565b6000611d59602683611981565b9150611d6482611cfd565b604082019050919050565b60006020820190508181036000830152611d8881611d4c565b9050919050565b7f43616e206e6f74206164642061206e657720666f756e6465722062656361757360008201527f652074686520746f6b656e732061726520657868617573746564000000000000602082015250565b6000611deb603a83611981565b9150611df682611d8f565b604082019050919050565b60006020820190508181036000830152611e1a81611dde565b9050919050565b7f44697374726962757465722063616e206e6f7420626520627579657200000000600082015250565b6000611e57601c83611981565b9150611e6282611e21565b602082019050919050565b60006020820190508181036000830152611e8681611e4a565b9050919050565b7f73686f756c64206e6f74206578636565642074686520746f74616c2062616c6160008201527f6e6365206f6620746f6b656e7320736f6c640000000000000000000000000000602082015250565b6000611ee9603283611981565b9150611ef482611e8d565b604082019050919050565b60006020820190508181036000830152611f1881611edc565b9050919050565b7f6f6e2074686973206164647265737320656d706c6f79656520616c726561647960008201527f2065786973747300000000000000000000000000000000000000000000000000602082015250565b6000611f7b602783611981565b9150611f8682611f1f565b604082019050919050565b60006020820190508181036000830152611faa81611f6e565b9050919050565b7f43616e206e6f74206164642061206e657720656d706c6f79656520626563617560008201527f73652074686520746f6b656e7320617265206578686175737465640000000000602082015250565b600061200d603b83611981565b915061201882611fb1565b604082019050919050565b6000602082019050818103600083015261203c81612000565b9050919050565b7f4f776e61626c653a206e6577206f776e657220697320746865207a65726f206160008201527f6464726573730000000000000000000000000000000000000000000000000000602082015250565b600061209f602683611981565b91506120aa82612043565b604082019050919050565b600060208201905081810360008301526120ce81612092565b905091905056fea2646970667358221220c3b0cf993efb6dec28cefbbb9be06823fcefa0c2d84e591b6999c220de75f32564736f6c6343000809003360806040523480156200001157600080fd5b506040518060400160405280600a81526020017f4661737420546f6b656e000000000000000000000000000000000000000000008152506040518060400160405280600281526020017f46540000000000000000000000000000000000000000000000000000000000008152508160039080519060200190620000969291906200036b565b508060049080519060200190620000af9291906200036b565b505050620000e4620000cf62000108640100000000026401000000009004565b62000110640100000000026401000000009004565b6200010233620f4240620001d6640100000000026401000000009004565b620005c7565b600033905090565b6000600560009054906101000a900473ffffffffffffffffffffffffffffffffffffffff16905081600560006101000a81548173ffffffffffffffffffffffffffffffffffffffff021916908373ffffffffffffffffffffffffffffffffffffffff1602179055508173ffffffffffffffffffffffffffffffffffffffff168173ffffffffffffffffffffffffffffffffffffffff167f8be0079c531659141344cd1fd0a4f28419497f9722a3daafe3b4186f6b6457e060405160405180910390a35050565b600073ffffffffffffffffffffffffffffffffffffffff168273ffffffffffffffffffffffffffffffffffffffff16141562000249576040517f08c379a000000000000000000000000000000000000000000000000000000000815260040162000240906200047c565b60405180910390fd5b620002666000838362000361640100000000026401000000009004565b80600260008282546200027a9190620004d7565b92505081905550806000808473ffffffffffffffffffffffffffffffffffffffff1673ffffffffffffffffffffffffffffffffffffffff1681526020019081526020016000206000828254620002d19190620004d7565b925050819055508173ffffffffffffffffffffffffffffffffffffffff16600073ffffffffffffffffffffffffffffffffffffffff167fddf252ad1be2c89b69c2b068fc378daa952ba7f163c4a11628f55a4df523b3ef8360405162000338919062000545565b60405180910390a36200035d6000838362000366640100000000026401000000009004565b5050565b505050565b505050565b828054620003799062000591565b90600052602060002090601f0160209004810192826200039d5760008555620003e9565b82601f10620003b857805160ff1916838001178555620003e9565b82800160010185558215620003e9579182015b82811115620003e8578251825591602001919060010190620003cb565b5b509050620003f89190620003fc565b5090565b5b8082111562000417576000816000905550600101620003fd565b5090565b600082825260208201905092915050565b7f45524332303a206d696e7420746f20746865207a65726f206164647265737300600082015250565b600062000464601f836200041b565b915062000471826200042c565b602082019050919050565b60006020820190508181036000830152620004978162000455565b9050919050565b6000819050919050565b7f4e487b7100000000000000000000000000000000000000000000000000000000600052601160045260246000fd5b6000620004e4826200049e565b9150620004f1836200049e565b9250827fffffffffffffffffffffffffffffffffffffffffffffffffffffffffffffffff03821115620005295762000528620004a8565b5b828201905092915050565b6200053f816200049e565b82525050565b60006020820190506200055c600083018462000534565b92915050565b7f4e487b7100000000000000000000000000000000000000000000000000000000600052602260045260246000fd5b60006002820490506001821680620005aa57607f821691505b60208210811415620005c157620005c062000562565b5b50919050565b6116a280620005d76000396000f3fe608060405234801561001057600080fd5b5060043610610107576000357c010000000000000000000000000000000000000000000000000000000090048063715018a6116100a9578063a457c2d711610083578063a457c2d71461026c578063a9059cbb1461029c578063dd62ed3e146102cc578063f2fde38b146102fc57610107565b8063715018a6146102265780638da5cb5b1461023057806395d89b411461024e57610107565b806323b872dd116100e557806323b872dd14610178578063313ce567146101a857806339509351146101c657806370a08231146101f657610107565b806306fdde031461010c578063095ea7b31461012a57806318160ddd1461015a575b600080fd5b610114610318565b6040516101219190610e34565b60405180910390f35b610144600480360381019061013f9190610eef565b6103aa565b6040516101519190610f4a565b60405180910390f35b6101626103cd565b60405161016f9190610f74565b60405180910390f35b610192600480360381019061018d9190610f8f565b6103d7565b60405161019f9190610f4a565b60405180910390f35b6101b0610406565b6040516101bd9190610ffe565b60405180910390f35b6101e060048036038101906101db9190610eef565b61040f565b6040516101ed9190610f4a565b60405180910390f35b610210600480360381019061020b9190611019565b610446565b60405161021d9190610f74565b60405180910390f35b61022e61048e565b005b610238610516565b6040516102459190611055565b60405180910390f35b610256610540565b6040516102639190610e34565b60405180910390f35b61028660048036038101906102819190610eef565b6105d2565b6040516102939190610f4a565b60405180910390f35b6102b660048036038101906102b19190610eef565b610649565b6040516102c39190610f4a565b60405180910390f35b6102e660048036038101906102e19190611070565b61066c565b6040516102f39190610f74565b60405180910390f35b61031660048036038101906103119190611019565b6106f3565b005b606060038054610327906110df565b80601f0160208091040260200160405190810160405280929190818152602001828054610353906110df565b80156103a05780601f10610375576101008083540402835291602001916103a0565b820191906000526020600020905b81548152906001019060200180831161038357829003601f168201915b5050505050905090565b6000806103b56107eb565b90506103c28185856107f3565b600191505092915050565b6000600254905090565b6000806103e26107eb565b90506103ef8582856109be565b6103fa858585610a4a565b60019150509392505050565b60006012905090565b60008061041a6107eb565b905061043b81858561042c858961066c565b6104369190611140565b6107f3565b600191505092915050565b60008060008373ffffffffffffffffffffffffffffffffffffffff1673ffffffffffffffffffffffffffffffffffffffff168152602001908152602001600020549050919050565b6104966107eb565b73ffffffffffffffffffffffffffffffffffffffff166104b4610516565b73ffffffffffffffffffffffffffffffffffffffff161461050a576040517f08c379a0000000000000000000000000000000000000000000000000000000008152600401610501906111e2565b60405180910390fd5b6105146000610ccb565b565b6000600560009054906101000a900473ffffffffffffffffffffffffffffffffffffffff16905090565b60606004805461054f906110df565b80601f016020809104026020016040519081016040528092919081815260200182805461057b906110df565b80156105c85780601f1061059d576101008083540402835291602001916105c8565b820191906000526020600020905b8154815290600101906020018083116105ab57829003601f168201915b5050505050905090565b6000806105dd6107eb565b905060006105eb828661066c565b905083811015610630576040517f08c379a000000000000000000000000000000000000000000000000000000000815260040161062790611274565b60405180910390fd5b61063d82868684036107f3565b60019250505092915050565b6000806106546107eb565b9050610661818585610a4a565b600191505092915050565b6000600160008473ffffffffffffffffffffffffffffffffffffffff1673ffffffffffffffffffffffffffffffffffffffff16815260200190815260200160002060008373ffffffffffffffffffffffffffffffffffffffff1673ffffffffffffffffffffffffffffffffffffffff16815260200190815260200160002054905092915050565b6106fb6107eb565b73ffffffffffffffffffffffffffffffffffffffff16610719610516565b73ffffffffffffffffffffffffffffffffffffffff161461076f576040517f08c379a0000000000000000000000000000000000000000000000000000000008152600401610766906111e2565b60405180910390fd5b600073ffffffffffffffffffffffffffffffffffffffff168173ffffffffffffffffffffffffffffffffffffffff1614156107df576040517f08c379a00000000000000000000000000000000000000000000000000000000081526004016107d690611306565b60405180910390fd5b6107e881610ccb565b50565b600033905090565b600073ffffffffffffffffffffffffffffffffffffffff168373ffffffffffffffffffffffffffffffffffffffff161415610863576040517f08c379a000000000000000000000000000000000000000000000000000000000815260040161085a90611398565b60405180910390fd5b600073ffffffffffffffffffffffffffffffffffffffff168273ffffffffffffffffffffffffffffffffffffffff1614156108d3576040517f08c379a00000000000000000000000000000000000000000000000000000000081526004016108ca9061142a565b60405180910390fd5b80600160008573ffffffffffffffffffffffffffffffffffffffff1673ffffffffffffffffffffffffffffffffffffffff16815260200190815260200160002060008473ffffffffffffffffffffffffffffffffffffffff1673ffffffffffffffffffffffffffffffffffffffff168152602001908152602001600020819055508173ffffffffffffffffffffffffffffffffffffffff168373ffffffffffffffffffffffffffffffffffffffff167f8c5be1e5ebec7d5bd14f71427d1e84f3dd0314c0f7b2291e5b200ac8c7c3b925836040516109b19190610f74565b60405180910390a3505050565b60006109ca848461066c565b90507fffffffffffffffffffffffffffffffffffffffffffffffffffffffffffffffff8114610a445781811015610a36576040517f08c379a0000000000000000000000000000000000000000000000000000000008152600401610a2d90611496565b60405180910390fd5b610a4384848484036107f3565b5b50505050565b600073ffffffffffffffffffffffffffffffffffffffff168373ffffffffffffffffffffffffffffffffffffffff161415610aba576040517f08c379a0000000000000000000000000000000000000000000000000000000008152600401610ab190611528565b60405180910390fd5b600073ffffffffffffffffffffffffffffffffffffffff168273ffffffffffffffffffffffffffffffffffffffff161415610b2a576040517f08c379a0000000000000000000000000000000000000000000000000000000008152600401610b21906115ba565b60405180910390fd5b610b35838383610d91565b60008060008573ffffffffffffffffffffffffffffffffffffffff1673ffffffffffffffffffffffffffffffffffffffff16815260200190815260200160002054905081811015610bbb576040517f08c379a0000000000000000000000000000000000000000000000000000000008152600401610bb29061164c565b60405180910390fd5b8181036000808673ffffffffffffffffffffffffffffffffffffffff1673ffffffffffffffffffffffffffffffffffffffff16815260200190815260200160002081905550816000808573ffffffffffffffffffffffffffffffffffffffff1673ffffffffffffffffffffffffffffffffffffffff1681526020019081526020016000206000828254610c4e9190611140565b925050819055508273ffffffffffffffffffffffffffffffffffffffff168473ffffffffffffffffffffffffffffffffffffffff167fddf252ad1be2c89b69c2b068fc378daa952ba7f163c4a11628f55a4df523b3ef84604051610cb29190610f74565b60405180910390a3610cc5848484610d96565b50505050565b6000600560009054906101000a900473ffffffffffffffffffffffffffffffffffffffff16905081600560006101000a81548173ffffffffffffffffffffffffffffffffffffffff021916908373ffffffffffffffffffffffffffffffffffffffff1602179055508173ffffffffffffffffffffffffffffffffffffffff168173ffffffffffffffffffffffffffffffffffffffff167f8be0079c531659141344cd1fd0a4f28419497f9722a3daafe3b4186f6b6457e060405160405180910390a35050565b505050565b505050565b600081519050919050565b600082825260208201905092915050565b60005b83811015610dd5578082015181840152602081019050610dba565b83811115610de4576000848401525b50505050565b6000601f19601f8301169050919050565b6000610e0682610d9b565b610e108185610da6565b9350610e20818560208601610db7565b610e2981610dea565b840191505092915050565b60006020820190508181036000830152610e4e8184610dfb565b905092915050565b600080fd5b600073ffffffffffffffffffffffffffffffffffffffff82169050919050565b6000610e8682610e5b565b9050919050565b610e9681610e7b565b8114610ea157600080fd5b50565b600081359050610eb381610e8d565b92915050565b6000819050919050565b610ecc81610eb9565b8114610ed757600080fd5b50565b600081359050610ee981610ec3565b92915050565b60008060408385031215610f0657610f05610e56565b5b6000610f1485828601610ea4565b9250506020610f2585828601610eda565b9150509250929050565b60008115159050919050565b610f4481610f2f565b82525050565b6000602082019050610f5f6000830184610f3b565b92915050565b610f6e81610eb9565b82525050565b6000602082019050610f896000830184610f65565b92915050565b600080600060608486031215610fa857610fa7610e56565b5b6000610fb686828701610ea4565b9350506020610fc786828701610ea4565b9250506040610fd886828701610eda565b9150509250925092565b600060ff82169050919050565b610ff881610fe2565b82525050565b60006020820190506110136000830184610fef565b92915050565b60006020828403121561102f5761102e610e56565b5b600061103d84828501610ea4565b91505092915050565b61104f81610e7b565b82525050565b600060208201905061106a6000830184611046565b92915050565b6000806040838503121561108757611086610e56565b5b600061109585828601610ea4565b92505060206110a685828601610ea4565b9150509250929050565b7f4e487b7100000000000000000000000000000000000000000000000000000000600052602260045260246000fd5b600060028204905060018216806110f757607f821691505b6020821081141561110b5761110a6110b0565b5b50919050565b7f4e487b7100000000000000000000000000000000000000000000000000000000600052601160045260246000fd5b600061114b82610eb9565b915061115683610eb9565b9250827fffffffffffffffffffffffffffffffffffffffffffffffffffffffffffffffff0382111561118b5761118a611111565b5b828201905092915050565b7f4f776e61626c653a2063616c6c6572206973206e6f7420746865206f776e6572600082015250565b60006111cc602083610da6565b91506111d782611196565b602082019050919050565b600060208201905081810360008301526111fb816111bf565b9050919050565b7f45524332303a2064656372656173656420616c6c6f77616e63652062656c6f7760008201527f207a65726f000000000000000000000000000000000000000000000000000000602082015250565b600061125e602583610da6565b915061126982611202565b604082019050919050565b6000602082019050818103600083015261128d81611251565b9050919050565b7f4f776e61626c653a206e6577206f776e657220697320746865207a65726f206160008201527f6464726573730000000000000000000000000000000000000000000000000000602082015250565b60006112f0602683610da6565b91506112fb82611294565b604082019050919050565b6000602082019050818103600083015261131f816112e3565b9050919050565b7f45524332303a20617070726f76652066726f6d20746865207a65726f2061646460008201527f7265737300000000000000000000000000000000000000000000000000000000602082015250565b6000611382602483610da6565b915061138d82611326565b604082019050919050565b600060208201905081810360008301526113b181611375565b9050919050565b7f45524332303a20617070726f766520746f20746865207a65726f20616464726560008201527f7373000000000000000000000000000000000000000000000000000000000000602082015250565b6000611414602283610da6565b915061141f826113b8565b604082019050919050565b6000602082019050818103600083015261144381611407565b9050919050565b7f45524332303a20696e73756666696369656e7420616c6c6f77616e6365000000600082015250565b6000611480601d83610da6565b915061148b8261144a565b602082019050919050565b600060208201905081810360008301526114af81611473565b9050919050565b7f45524332303a207472616e736665722066726f6d20746865207a65726f20616460008201527f6472657373000000000000000000000000000000000000000000000000000000602082015250565b6000611512602583610da6565b915061151d826114b6565b604082019050919050565b6000602082019050818103600083015261154181611505565b9050919050565b7f45524332303a207472616e7366657220746f20746865207a65726f206164647260008201527f6573730000000000000000000000000000000000000000000000000000000000602082015250565b60006115a4602383610da6565b91506115af82611548565b604082019050919050565b600060208201905081810360008301526115d381611597565b9050919050565b7f45524332303a207472616e7366657220616d6f756e742065786365656473206260008201527f616c616e63650000000000000000000000000000000000000000000000000000602082015250565b6000611636602683610da6565b9150611641826115da565b604082019050919050565b6000602082019050818103600083015261166581611629565b905091905056fea264697066735822122028f047d70961b5a80f9f0446f69a155703f2e2c5cda5776ee80ec5061540086864736f6c63430008090033",
  "immutableReferences": {},
  "source": "// SPDX-License-Identifier: MIT\npragma solidity ^0.8.9;\n\n/// Library imports\nimport \"@openzeppelin/contracts/access/Ownable.sol\";\n\n/// Local imports\nimport \"./FastToken.sol\";\n\ncontract Distributer is Ownable {\n\n    address distributerOwner;\n    uint256 public foundersTotalSupply;\n    uint256 public employeesTotalSupply;\n    uint256 public soldTokensTotalSupply;\n    FastToken private fastToken;\n\n    constructor() { \n        distributerOwner = msg.sender;\n        fastToken = new FastToken();\n        require(fastToken.totalSupply() == 1000000,\"does not match total supply\"); \n        fastToken.approve(distributerOwner, 1000000);\n        foundersTotalSupply = 400000;\n        employeesTotalSupply = 200000;\n        soldTokensTotalSupply = 400000;\n    }\n  \n    mapping(address => Owners) public owners;\n     \n    enum OwnerStatus {\n\t\tActive,\n        Frozen\n\t}\n\n    enum OwnerType {\n        Founder,\n        Employee\n    }\n\n    struct Owners {\n        OwnerStatus status;\n        OwnerType user;\n        address owner;\n        uint256 amount;\n        uint256 activeAmount;\n        uint256 freezingTime;\n        uint256 currentTime;  \n    }\n\n    /// Owner Only functions\n    function addFounder(address founder,uint256 amount) public onlyOwner {\n        require(owners[founder].owner == address(0), \"on this address Founder already exists\");\n        require(foundersTotalSupply >= amount,\"Can not add a new founder because the tokens are exhausted\");\n        Owners memory owner = Owners(\n            OwnerStatus.Frozen,\n            OwnerType.Founder,\n            founder,\n            (amount - (amount / 5)),\n            (amount / 5),\n            (block.timestamp + 730 days),\n            (block.timestamp + 730 days)\n        );\n        \n        owners[founder] = owner;\n        foundersTotalSupply -= amount;   \n    } \n\n    function addEmployee(address employee, uint256 amount) public onlyOwner {\n        require(owners[employee].owner == address(0), \"on this address employee already exists\");\n        require(employeesTotalSupply >= amount,\"Can not add a new employee because the tokens are exhausted\");\n        Owners memory owner = Owners(\n            OwnerStatus.Frozen,\n            OwnerType.Employee,\n            employee,\n            (amount - (amount / 10)),\n            (amount / 10),\n            (block.timestamp + 180 days),\n            (block.timestamp + 180 days)\n        );\n\n        owners[employee] = owner;\n        employeesTotalSupply -= amount;\n    }\n\n    function soldTokensManagement(address buyer, uint256 amount) public onlyOwner {\n        require(msg.sender != distributerOwner, \"Distributer can not be buyer\");\n        require(amount >= soldTokensTotalSupply,\"should not exceed the total balance of tokens sold\");\n        fastToken.transfer(buyer, amount);\n        soldTokensTotalSupply -= amount;\n    }\n\n    /// Utils\n    function secondsPerDay(uint256 second) private pure returns (uint256) {\n        return (second / (86400) + 1);\n    }\n \n    /// Owners API\n    function currentStatus(address owner) public view returns (Owners memory) {\n        require(msg.sender == owners[owner].owner, \"you can not access this information\");\n      \n        return owners[owner];\n    }\n\n    function ownersToUse() public payable {\n        require(msg.sender == owners[msg.sender].owner, \"you can not access this information\");\n        require(owners[msg.sender].currentTime > block.timestamp, \"Your account is still frozen\");\n       \n        uint256 ownerPercent =  (owners[msg.sender].user == OwnerType.Employee ? 10000 : 50000); \n\n        uint256 day = secondsPerDay((block.timestamp - owners[msg.sender].currentTime));\n        uint256 partOfAmount = (day / 30);\n        partOfAmount = (partOfAmount * ownerPercent) + ownerPercent;\n        owners[msg.sender].status = OwnerStatus.Active;\n        fastToken.transfer(msg.sender, partOfAmount);\n        owners[msg.sender].amount -= (partOfAmount);\n        day = (day / 30) + 1;\n        owners[msg.sender].currentTime += (day * 30 days);\n    }  \n}",
  "sourcePath": "/home/karen/distribution contract/contracts/Distributer.sol",
  "compiler": {
    "name": "solc",
    "version": "0.8.9+commit.e5eed63a.Emscripten.clang"
  },
  "schemaVersion": "3.4.7",
  "updatedAt": "2022-05-30T13:23:06.055Z",
  "devdoc": {
    "kind": "dev",
    "methods": {
      "owner()": {
        "details": "Returns the address of the current owner."
      },
      "renounceOwnership()": {
        "details": "Leaves the contract without owner. It will not be possible to call `onlyOwner` functions anymore. Can only be called by the current owner. NOTE: Renouncing ownership will leave the contract without an owner, thereby removing any functionality that is only available to the owner."
      },
      "transferOwnership(address)": {
        "details": "Transfers ownership of the contract to a new account (`newOwner`). Can only be called by the current owner."
      }
    },
    "version": 1
  },
  "userdoc": {
    "kind": "user",
    "methods": {
      "addFounder(address,uint256)": {
        "notice": "Owner Only functions"
      },
      "currentStatus(address)": {
        "notice": "Owners API"
      }
    },
    "version": 1
  }
}