{
  "contractName": "Distributer",
  "abi": [
    {
      "inputs": [],
      "stateMutability": "nonpayable",
      "type": "constructor"
    },
    {
      "anonymous": false,
      "inputs": [
        {
          "indexed": true,
          "internalType": "address",
          "name": "previousOwner",
          "type": "address"
        },
        {
          "indexed": true,
          "internalType": "address",
          "name": "newOwner",
          "type": "address"
        }
      ],
      "name": "OwnershipTransferred",
      "type": "event"
    },
    {
      "inputs": [],
      "name": "employeesTotalSupply",
      "outputs": [
        {
          "internalType": "uint256",
          "name": "",
          "type": "uint256"
        }
      ],
      "stateMutability": "view",
      "type": "function"
    },
    {
      "inputs": [],
      "name": "fastToken",
      "outputs": [
        {
          "internalType": "contract FastToken",
          "name": "",
          "type": "address"
        }
      ],
      "stateMutability": "view",
      "type": "function"
    },
    {
      "inputs": [],
      "name": "foundersTotalSupply",
      "outputs": [
        {
          "internalType": "uint256",
          "name": "",
          "type": "uint256"
        }
      ],
      "stateMutability": "view",
      "type": "function"
    },
    {
      "inputs": [],
      "name": "owner",
      "outputs": [
        {
          "internalType": "address",
          "name": "",
          "type": "address"
        }
      ],
      "stateMutability": "view",
      "type": "function"
    },
    {
      "inputs": [
        {
          "internalType": "address",
          "name": "",
          "type": "address"
        }
      ],
      "name": "owners",
      "outputs": [
        {
          "internalType": "enum Distributer.OwnerType",
          "name": "ownerType",
          "type": "uint8"
        },
        {
          "internalType": "uint256",
          "name": "totalAmount",
          "type": "uint256"
        },
        {
          "internalType": "uint256",
          "name": "claimed",
          "type": "uint256"
        },
        {
          "internalType": "uint256",
          "name": "allocationTime",
          "type": "uint256"
        }
      ],
      "stateMutability": "view",
      "type": "function"
    },
    {
      "inputs": [],
      "name": "renounceOwnership",
      "outputs": [],
      "stateMutability": "nonpayable",
      "type": "function"
    },
    {
      "inputs": [],
      "name": "soldTokensTotalSupply",
      "outputs": [
        {
          "internalType": "uint256",
          "name": "",
          "type": "uint256"
        }
      ],
      "stateMutability": "view",
      "type": "function"
    },
    {
      "inputs": [
        {
          "internalType": "address",
          "name": "newOwner",
          "type": "address"
        }
      ],
      "name": "transferOwnership",
      "outputs": [],
      "stateMutability": "nonpayable",
      "type": "function"
    },
    {
      "inputs": [
        {
          "internalType": "address",
          "name": "founder_",
          "type": "address"
        },
        {
          "internalType": "uint256",
          "name": "amount_",
          "type": "uint256"
        }
      ],
      "name": "addFounder",
      "outputs": [],
      "stateMutability": "nonpayable",
      "type": "function"
    },
    {
      "inputs": [
        {
          "internalType": "address",
          "name": "employee_",
          "type": "address"
        },
        {
          "internalType": "uint256",
          "name": "amount_",
          "type": "uint256"
        }
      ],
      "name": "addEmployee",
      "outputs": [],
      "stateMutability": "nonpayable",
      "type": "function"
    },
    {
      "inputs": [
        {
          "internalType": "address",
          "name": "buyer_",
          "type": "address"
        },
        {
          "internalType": "uint256",
          "name": "amount_",
          "type": "uint256"
        }
      ],
      "name": "soldTokensManagement",
      "outputs": [],
      "stateMutability": "nonpayable",
      "type": "function"
    },
    {
      "inputs": [],
      "name": "claim",
      "outputs": [],
      "stateMutability": "nonpayable",
      "type": "function"
    }
  ],
  "bytecode": "0x60806040523480156200001157600080fd5b50620000446200002f6200020d640100000000026401000000009004565b62000215640100000000026401000000009004565b6040516200005290620002d9565b604051809103906000f0801580156200006f573d6000803e3d6000fd5b50600460006101000a81548173ffffffffffffffffffffffffffffffffffffffff021916908373ffffffffffffffffffffffffffffffffffffffff1602179055506954b40b1f852bda000000600181905550692a5a058fc295ed0000006002819055506954b40b1f852bda000000600381905550600354600254600154620000f8919062000320565b62000104919062000320565b600460009054906101000a900473ffffffffffffffffffffffffffffffffffffffff1673ffffffffffffffffffffffffffffffffffffffff166318160ddd6040518163ffffffff167c010000000000000000000000000000000000000000000000000000000002815260040160206040518083038186803b1580156200018957600080fd5b505afa1580156200019e573d6000803e3d6000fd5b505050506040513d601f19601f82011682018060405250810190620001c49190620003b3565b1462000207576040517f08c379a0000000000000000000000000000000000000000000000000000000008152600401620001fe9062000446565b60405180910390fd5b62000468565b600033905090565b60008060009054906101000a900473ffffffffffffffffffffffffffffffffffffffff169050816000806101000a81548173ffffffffffffffffffffffffffffffffffffffff021916908373ffffffffffffffffffffffffffffffffffffffff1602179055508173ffffffffffffffffffffffffffffffffffffffff168173ffffffffffffffffffffffffffffffffffffffff167f8be0079c531659141344cd1fd0a4f28419497f9722a3daafe3b4186f6b6457e060405160405180910390a35050565b611763806200204c83390190565b6000819050919050565b7f4e487b7100000000000000000000000000000000000000000000000000000000600052601160045260246000fd5b60006200032d82620002e7565b91506200033a83620002e7565b9250827fffffffffffffffffffffffffffffffffffffffffffffffffffffffffffffffff03821115620003725762000371620002f1565b5b828201905092915050565b600080fd5b6200038d81620002e7565b81146200039957600080fd5b50565b600081519050620003ad8162000382565b92915050565b600060208284031215620003cc57620003cb6200037d565b5b6000620003dc848285016200039c565b91505092915050565b600082825260208201905092915050565b7f446f6573206e6f74206d6174636820746f74616c20737570706c790000000000600082015250565b60006200042e601b83620003e5565b91506200043b82620003f6565b602082019050919050565b6000602082019050818103600083015262000461816200041f565b9050919050565b611bd480620004786000396000f3fe608060405234801561001057600080fd5b50600436106100d1576000357c010000000000000000000000000000000000000000000000000000000090048063c3d90d0d1161008e578063c3d90d0d14610175578063d3208c7a14610191578063e7fd9a13146101af578063e924c5fd146101cb578063f2fde38b146101e9578063f962fc4f14610205576100d1565b8063022914a7146100d65780634e71d92d146101095780635615dbbc14610113578063715018a6146101315780638da5cb5b1461013b5780638fa906b214610159575b600080fd5b6100f060048036038101906100eb919061111f565b610223565b60405161010094939291906111dc565b60405180910390f35b610111610260565b005b61011b610643565b6040516101289190611221565b60405180910390f35b610139610649565b005b6101436106d1565b604051610150919061124b565b60405180910390f35b610173600480360381019061016e9190611292565b6106fa565b005b61018f600480360381019061018a9190611292565b6109cd565b005b610199610bb5565b6040516101a69190611221565b60405180910390f35b6101c960048036038101906101c49190611292565b610bbb565b005b6101d3610ecc565b6040516101e09190611221565b60405180910390f35b61020360048036038101906101fe919061111f565b610ed2565b005b61020d610fca565b60405161021a9190611331565b60405180910390f35b60056020528060005260406000206000915090508060000160009054906101000a900460ff16908060010154908060020154908060030154905084565b6000600560003373ffffffffffffffffffffffffffffffffffffffff1673ffffffffffffffffffffffffffffffffffffffff168152602001908152602001600020905080600101546000106102ea576040517f08c379a00000000000000000000000000000000000000000000000000000000081526004016102e1906113cf565b60405180910390fd5b806002015481600101541415610335576040517f08c379a000000000000000000000000000000000000000000000000000000000815260040161032c9061143b565b60405180910390fd5b6000808260000160009054906101000a900460ff16600181111561035c5761035b61114c565b5b60018081111561036f5761036e61114c565b5b1415610426574262ed4e008460030154610389919061148a565b106103c9576040517f08c379a00000000000000000000000000000000000000000000000000000000081526004016103c09061152c565b60405180910390fd5b600162278d0062ed4e0085600301546103e2919061148a565b426103ed919061154c565b6103f791906115af565b610401919061148a565b9150600a83600101548361041591906115e0565b61041f91906115af565b90506104d5565b426303c26700846003015461043b919061148a565b1061047b576040517f08c379a00000000000000000000000000000000000000000000000000000000081526004016104729061152c565b60405180910390fd5b600162278d006303c267008560030154610495919061148a565b426104a0919061154c565b6104aa91906115af565b6104b4919061148a565b915060058360010154836104c891906115e0565b6104d291906115af565b90505b826002015481141561051c576040517f08c379a0000000000000000000000000000000000000000000000000000000008152600401610513906116ac565b60405180910390fd5b600460009054906101000a900473ffffffffffffffffffffffffffffffffffffffff1673ffffffffffffffffffffffffffffffffffffffff1663a9059cbb3385600201548461056b919061154c565b6040518363ffffffff167c01000000000000000000000000000000000000000000000000000000000281526004016105a49291906116cc565b602060405180830381600087803b1580156105be57600080fd5b505af11580156105d2573d6000803e3d6000fd5b505050506040513d601f19601f820116820180604052508101906105f6919061172d565b610635576040517f08c379a000000000000000000000000000000000000000000000000000000000815260040161062c906117a6565b60405180910390fd5b808360020181905550505050565b60025481565b610651610ff0565b73ffffffffffffffffffffffffffffffffffffffff1661066f6106d1565b73ffffffffffffffffffffffffffffffffffffffff16146106c5576040517f08c379a00000000000000000000000000000000000000000000000000000000081526004016106bc90611812565b60405180910390fd5b6106cf6000610ff8565b565b60008060009054906101000a900473ffffffffffffffffffffffffffffffffffffffff16905090565b610702610ff0565b73ffffffffffffffffffffffffffffffffffffffff166107206106d1565b73ffffffffffffffffffffffffffffffffffffffff1614610776576040517f08c379a000000000000000000000000000000000000000000000000000000000815260040161076d90611812565b60405180910390fd5b6000600560008473ffffffffffffffffffffffffffffffffffffffff1673ffffffffffffffffffffffffffffffffffffffff16815260200190815260200160002090508060010154600014610800576040517f08c379a00000000000000000000000000000000000000000000000000000000081526004016107f7906118a4565b60405180910390fd5b816001541015610845576040517f08c379a000000000000000000000000000000000000000000000000000000000815260040161083c90611936565b60405180910390fd5b60008160000160006101000a81548160ff0219169083600181111561086d5761086c61114c565b5b021790555081816001018190555060058261088891906115af565b816002018190555042816003018190555081600160008282546108ab919061154c565b92505081905550600460009054906101000a900473ffffffffffffffffffffffffffffffffffffffff1673ffffffffffffffffffffffffffffffffffffffff1663a9059cbb846005856108fe91906115af565b6040518363ffffffff167c01000000000000000000000000000000000000000000000000000000000281526004016109379291906116cc565b602060405180830381600087803b15801561095157600080fd5b505af1158015610965573d6000803e3d6000fd5b505050506040513d601f19601f82011682018060405250810190610989919061172d565b6109c8576040517f08c379a00000000000000000000000000000000000000000000000000000000081526004016109bf906117a6565b60405180910390fd5b505050565b6109d5610ff0565b73ffffffffffffffffffffffffffffffffffffffff166109f36106d1565b73ffffffffffffffffffffffffffffffffffffffff1614610a49576040517f08c379a0000000000000000000000000000000000000000000000000000000008152600401610a4090611812565b60405180910390fd5b600354811115610a8e576040517f08c379a0000000000000000000000000000000000000000000000000000000008152600401610a85906119c8565b60405180910390fd5b600460009054906101000a900473ffffffffffffffffffffffffffffffffffffffff1673ffffffffffffffffffffffffffffffffffffffff1663a9059cbb83836040518363ffffffff167c0100000000000000000000000000000000000000000000000000000000028152600401610b079291906116cc565b602060405180830381600087803b158015610b2157600080fd5b505af1158015610b35573d6000803e3d6000fd5b505050506040513d601f19601f82011682018060405250810190610b59919061172d565b610b98576040517f08c379a0000000000000000000000000000000000000000000000000000000008152600401610b8f906117a6565b60405180910390fd5b8060036000828254610baa919061154c565b925050819055505050565b60015481565b610bc3610ff0565b73ffffffffffffffffffffffffffffffffffffffff16610be16106d1565b73ffffffffffffffffffffffffffffffffffffffff1614610c37576040517f08c379a0000000000000000000000000000000000000000000000000000000008152600401610c2e90611812565b60405180910390fd5b6000600560008473ffffffffffffffffffffffffffffffffffffffff1673ffffffffffffffffffffffffffffffffffffffff1681526020019081526020016000209050600560008473ffffffffffffffffffffffffffffffffffffffff1673ffffffffffffffffffffffffffffffffffffffff16815260200190815260200160002060010154600014610cff576040517f08c379a0000000000000000000000000000000000000000000000000000000008152600401610cf690611a5a565b60405180910390fd5b816002541015610d44576040517f08c379a0000000000000000000000000000000000000000000000000000000008152600401610d3b90611aec565b60405180910390fd5b60018160000160006101000a81548160ff02191690836001811115610d6c57610d6b61114c565b5b0217905550818160010181905550600a82610d8791906115af565b81600201819055504281600301819055508160026000828254610daa919061154c565b92505081905550600460009054906101000a900473ffffffffffffffffffffffffffffffffffffffff1673ffffffffffffffffffffffffffffffffffffffff1663a9059cbb84600a85610dfd91906115af565b6040518363ffffffff167c0100000000000000000000000000000000000000000000000000000000028152600401610e369291906116cc565b602060405180830381600087803b158015610e5057600080fd5b505af1158015610e64573d6000803e3d6000fd5b505050506040513d601f19601f82011682018060405250810190610e88919061172d565b610ec7576040517f08c379a0000000000000000000000000000000000000000000000000000000008152600401610ebe906117a6565b60405180910390fd5b505050565b60035481565b610eda610ff0565b73ffffffffffffffffffffffffffffffffffffffff16610ef86106d1565b73ffffffffffffffffffffffffffffffffffffffff1614610f4e576040517f08c379a0000000000000000000000000000000000000000000000000000000008152600401610f4590611812565b60405180910390fd5b600073ffffffffffffffffffffffffffffffffffffffff168173ffffffffffffffffffffffffffffffffffffffff161415610fbe576040517f08c379a0000000000000000000000000000000000000000000000000000000008152600401610fb590611b7e565b60405180910390fd5b610fc781610ff8565b50565b600460009054906101000a900473ffffffffffffffffffffffffffffffffffffffff1681565b600033905090565b60008060009054906101000a900473ffffffffffffffffffffffffffffffffffffffff169050816000806101000a81548173ffffffffffffffffffffffffffffffffffffffff021916908373ffffffffffffffffffffffffffffffffffffffff1602179055508173ffffffffffffffffffffffffffffffffffffffff168173ffffffffffffffffffffffffffffffffffffffff167f8be0079c531659141344cd1fd0a4f28419497f9722a3daafe3b4186f6b6457e060405160405180910390a35050565b600080fd5b600073ffffffffffffffffffffffffffffffffffffffff82169050919050565b60006110ec826110c1565b9050919050565b6110fc816110e1565b811461110757600080fd5b50565b600081359050611119816110f3565b92915050565b600060208284031215611135576111346110bc565b5b60006111438482850161110a565b91505092915050565b7f4e487b7100000000000000000000000000000000000000000000000000000000600052602160045260246000fd5b6002811061118c5761118b61114c565b5b50565b600081905061119d8261117b565b919050565b60006111ad8261118f565b9050919050565b6111bd816111a2565b82525050565b6000819050919050565b6111d6816111c3565b82525050565b60006080820190506111f160008301876111b4565b6111fe60208301866111cd565b61120b60408301856111cd565b61121860608301846111cd565b95945050505050565b600060208201905061123660008301846111cd565b92915050565b611245816110e1565b82525050565b6000602082019050611260600083018461123c565b92915050565b61126f816111c3565b811461127a57600080fd5b50565b60008135905061128c81611266565b92915050565b600080604083850312156112a9576112a86110bc565b5b60006112b78582860161110a565b92505060206112c88582860161127d565b9150509250929050565b6000819050919050565b60006112f76112f26112ed846110c1565b6112d2565b6110c1565b9050919050565b6000611309826112dc565b9050919050565b600061131b826112fe565b9050919050565b61132b81611310565b82525050565b60006020820190506113466000830184611322565b92915050565b600082825260208201905092915050565b7f596f752063616e206e6f742061636373657373207468697320696e666f726d6160008201527f74696f6e00000000000000000000000000000000000000000000000000000000602082015250565b60006113b960248361134c565b91506113c48261135d565b604082019050919050565b600060208201905081810360008301526113e8816113ac565b9050919050565b7f596f757220746f74616c20616d6f756e74206973206578686175737465640000600082015250565b6000611425601e8361134c565b9150611430826113ef565b602082019050919050565b6000602082019050818103600083015261145481611418565b9050919050565b7f4e487b7100000000000000000000000000000000000000000000000000000000600052601160045260246000fd5b6000611495826111c3565b91506114a0836111c3565b9250827fffffffffffffffffffffffffffffffffffffffffffffffffffffffffffffffff038211156114d5576114d461145b565b5b828201905092915050565b7f596f7572206163636f756e74206973207374696c6c2066726f7a656e00000000600082015250565b6000611516601c8361134c565b9150611521826114e0565b602082019050919050565b6000602082019050818103600083015261154581611509565b9050919050565b6000611557826111c3565b9150611562836111c3565b9250828210156115755761157461145b565b5b828203905092915050565b7f4e487b7100000000000000000000000000000000000000000000000000000000600052601260045260246000fd5b60006115ba826111c3565b91506115c5836111c3565b9250826115d5576115d4611580565b5b828204905092915050565b60006115eb826111c3565b91506115f6836111c3565b9250817fffffffffffffffffffffffffffffffffffffffffffffffffffffffffffffffff048311821515161561162f5761162e61145b565b5b828202905092915050565b7f596f7520616c72656164792075736520796f757220616d6f756e742062616c6160008201527f6e636520666f722074686973206d6f6e74680000000000000000000000000000602082015250565b600061169660328361134c565b91506116a18261163a565b604082019050919050565b600060208201905081810360008301526116c581611689565b9050919050565b60006040820190506116e1600083018561123c565b6116ee60208301846111cd565b9392505050565b60008115159050919050565b61170a816116f5565b811461171557600080fd5b50565b60008151905061172781611701565b92915050565b600060208284031215611743576117426110bc565b5b600061175184828501611718565b91505092915050565b7f43616e6e6f74207472616e7366657220746f6b656e7300000000000000000000600082015250565b600061179060168361134c565b915061179b8261175a565b602082019050919050565b600060208201905081810360008301526117bf81611783565b9050919050565b7f4f776e61626c653a2063616c6c6572206973206e6f7420746865206f776e6572600082015250565b60006117fc60208361134c565b9150611807826117c6565b602082019050919050565b6000602082019050818103600083015261182b816117ef565b9050919050565b7f4f6e20666f756e646572206164647265737320466f756e64657220616c72656160008201527f6479206578697374730000000000000000000000000000000000000000000000602082015250565b600061188e60298361134c565b915061189982611832565b604082019050919050565b600060208201905081810360008301526118bd81611881565b9050919050565b7f43616e206e6f74206164642061206e657720666f756e6465722062656361757360008201527f652074686520746f6b656e732061726520657868617573746564000000000000602082015250565b6000611920603a8361134c565b915061192b826118c4565b604082019050919050565b6000602082019050818103600083015261194f81611913565b9050919050565b7f53686f756c64206e6f74206578636565642074686520746f74616c2062616c6160008201527f6e6365206f6620746f6b656e7320736f6c640000000000000000000000000000602082015250565b60006119b260328361134c565b91506119bd82611956565b604082019050919050565b600060208201905081810360008301526119e1816119a5565b9050919050565b7f4f6e20656d706c6f796565206164647265737320656d706c6f79656520616c7260008201527f6561647920657869737473000000000000000000000000000000000000000000602082015250565b6000611a44602b8361134c565b9150611a4f826119e8565b604082019050919050565b60006020820190508181036000830152611a7381611a37565b9050919050565b7f43616e206e6f74206164642061206e657720656d706c6f79656520626563617560008201527f73652074686520746f6b656e7320617265207370656e64656400000000000000602082015250565b6000611ad660398361134c565b9150611ae182611a7a565b604082019050919050565b60006020820190508181036000830152611b0581611ac9565b9050919050565b7f4f776e61626c653a206e6577206f776e657220697320746865207a65726f206160008201527f6464726573730000000000000000000000000000000000000000000000000000602082015250565b6000611b6860268361134c565b9150611b7382611b0c565b604082019050919050565b60006020820190508181036000830152611b9781611b5b565b905091905056fea2646970667358221220a8782f810b7c0053d5dd7b354175948ffab5c210a92cff8cbde186a9eedd4afc64736f6c6343000809003360806040523480156200001157600080fd5b506040518060400160405280600a81526020017f4661737420546f6b656e000000000000000000000000000000000000000000008152506040518060400160405280600281526020017f465400000000000000000000000000000000000000000000000000000000000081525081600390805190602001906200009692919062000272565b508060049080519060200190620000af92919062000272565b505050620000d73369d3c21bcecceda1000000620000dd640100000000026401000000009004565b620004ce565b600073ffffffffffffffffffffffffffffffffffffffff168273ffffffffffffffffffffffffffffffffffffffff16141562000150576040517f08c379a0000000000000000000000000000000000000000000000000000000008152600401620001479062000383565b60405180910390fd5b6200016d6000838362000268640100000000026401000000009004565b8060026000828254620001819190620003de565b92505081905550806000808473ffffffffffffffffffffffffffffffffffffffff1673ffffffffffffffffffffffffffffffffffffffff1681526020019081526020016000206000828254620001d89190620003de565b925050819055508173ffffffffffffffffffffffffffffffffffffffff16600073ffffffffffffffffffffffffffffffffffffffff167fddf252ad1be2c89b69c2b068fc378daa952ba7f163c4a11628f55a4df523b3ef836040516200023f91906200044c565b60405180910390a362000264600083836200026d640100000000026401000000009004565b5050565b505050565b505050565b828054620002809062000498565b90600052602060002090601f016020900481019282620002a45760008555620002f0565b82601f10620002bf57805160ff1916838001178555620002f0565b82800160010185558215620002f0579182015b82811115620002ef578251825591602001919060010190620002d2565b5b509050620002ff919062000303565b5090565b5b808211156200031e57600081600090555060010162000304565b5090565b600082825260208201905092915050565b7f45524332303a206d696e7420746f20746865207a65726f206164647265737300600082015250565b60006200036b601f8362000322565b9150620003788262000333565b602082019050919050565b600060208201905081810360008301526200039e816200035c565b9050919050565b6000819050919050565b7f4e487b7100000000000000000000000000000000000000000000000000000000600052601160045260246000fd5b6000620003eb82620003a5565b9150620003f883620003a5565b9250827fffffffffffffffffffffffffffffffffffffffffffffffffffffffffffffffff0382111562000430576200042f620003af565b5b828201905092915050565b6200044681620003a5565b82525050565b60006020820190506200046360008301846200043b565b92915050565b7f4e487b7100000000000000000000000000000000000000000000000000000000600052602260045260246000fd5b60006002820490506001821680620004b157607f821691505b60208210811415620004c857620004c762000469565b5b50919050565b61128580620004de6000396000f3fe608060405234801561001057600080fd5b50600436106100c6576000357c010000000000000000000000000000000000000000000000000000000090048063395093511161008e578063395093511461018557806370a08231146101b557806395d89b41146101e5578063a457c2d714610203578063a9059cbb14610233578063dd62ed3e14610263576100c6565b806306fdde03146100cb578063095ea7b3146100e957806318160ddd1461011957806323b872dd14610137578063313ce56714610167575b600080fd5b6100d3610293565b6040516100e09190610b3f565b60405180910390f35b61010360048036038101906100fe9190610bfa565b610325565b6040516101109190610c55565b60405180910390f35b610121610348565b60405161012e9190610c7f565b60405180910390f35b610151600480360381019061014c9190610c9a565b610352565b60405161015e9190610c55565b60405180910390f35b61016f610381565b60405161017c9190610d09565b60405180910390f35b61019f600480360381019061019a9190610bfa565b61038a565b6040516101ac9190610c55565b60405180910390f35b6101cf60048036038101906101ca9190610d24565b6103c1565b6040516101dc9190610c7f565b60405180910390f35b6101ed610409565b6040516101fa9190610b3f565b60405180910390f35b61021d60048036038101906102189190610bfa565b61049b565b60405161022a9190610c55565b60405180910390f35b61024d60048036038101906102489190610bfa565b610512565b60405161025a9190610c55565b60405180910390f35b61027d60048036038101906102789190610d51565b610535565b60405161028a9190610c7f565b60405180910390f35b6060600380546102a290610dc0565b80601f01602080910402602001604051908101604052809291908181526020018280546102ce90610dc0565b801561031b5780601f106102f05761010080835404028352916020019161031b565b820191906000526020600020905b8154815290600101906020018083116102fe57829003601f168201915b5050505050905090565b6000806103306105bc565b905061033d8185856105c4565b600191505092915050565b6000600254905090565b60008061035d6105bc565b905061036a85828561078f565b61037585858561081b565b60019150509392505050565b60006012905090565b6000806103956105bc565b90506103b68185856103a78589610535565b6103b19190610e21565b6105c4565b600191505092915050565b60008060008373ffffffffffffffffffffffffffffffffffffffff1673ffffffffffffffffffffffffffffffffffffffff168152602001908152602001600020549050919050565b60606004805461041890610dc0565b80601f016020809104026020016040519081016040528092919081815260200182805461044490610dc0565b80156104915780601f1061046657610100808354040283529160200191610491565b820191906000526020600020905b81548152906001019060200180831161047457829003601f168201915b5050505050905090565b6000806104a66105bc565b905060006104b48286610535565b9050838110156104f9576040517f08c379a00000000000000000000000000000000000000000000000000000000081526004016104f090610ee9565b60405180910390fd5b61050682868684036105c4565b60019250505092915050565b60008061051d6105bc565b905061052a81858561081b565b600191505092915050565b6000600160008473ffffffffffffffffffffffffffffffffffffffff1673ffffffffffffffffffffffffffffffffffffffff16815260200190815260200160002060008373ffffffffffffffffffffffffffffffffffffffff1673ffffffffffffffffffffffffffffffffffffffff16815260200190815260200160002054905092915050565b600033905090565b600073ffffffffffffffffffffffffffffffffffffffff168373ffffffffffffffffffffffffffffffffffffffff161415610634576040517f08c379a000000000000000000000000000000000000000000000000000000000815260040161062b90610f7b565b60405180910390fd5b600073ffffffffffffffffffffffffffffffffffffffff168273ffffffffffffffffffffffffffffffffffffffff1614156106a4576040517f08c379a000000000000000000000000000000000000000000000000000000000815260040161069b9061100d565b60405180910390fd5b80600160008573ffffffffffffffffffffffffffffffffffffffff1673ffffffffffffffffffffffffffffffffffffffff16815260200190815260200160002060008473ffffffffffffffffffffffffffffffffffffffff1673ffffffffffffffffffffffffffffffffffffffff168152602001908152602001600020819055508173ffffffffffffffffffffffffffffffffffffffff168373ffffffffffffffffffffffffffffffffffffffff167f8c5be1e5ebec7d5bd14f71427d1e84f3dd0314c0f7b2291e5b200ac8c7c3b925836040516107829190610c7f565b60405180910390a3505050565b600061079b8484610535565b90507fffffffffffffffffffffffffffffffffffffffffffffffffffffffffffffffff81146108155781811015610807576040517f08c379a00000000000000000000000000000000000000000000000000000000081526004016107fe90611079565b60405180910390fd5b61081484848484036105c4565b5b50505050565b600073ffffffffffffffffffffffffffffffffffffffff168373ffffffffffffffffffffffffffffffffffffffff16141561088b576040517f08c379a00000000000000000000000000000000000000000000000000000000081526004016108829061110b565b60405180910390fd5b600073ffffffffffffffffffffffffffffffffffffffff168273ffffffffffffffffffffffffffffffffffffffff1614156108fb576040517f08c379a00000000000000000000000000000000000000000000000000000000081526004016108f29061119d565b60405180910390fd5b610906838383610a9c565b60008060008573ffffffffffffffffffffffffffffffffffffffff1673ffffffffffffffffffffffffffffffffffffffff1681526020019081526020016000205490508181101561098c576040517f08c379a00000000000000000000000000000000000000000000000000000000081526004016109839061122f565b60405180910390fd5b8181036000808673ffffffffffffffffffffffffffffffffffffffff1673ffffffffffffffffffffffffffffffffffffffff16815260200190815260200160002081905550816000808573ffffffffffffffffffffffffffffffffffffffff1673ffffffffffffffffffffffffffffffffffffffff1681526020019081526020016000206000828254610a1f9190610e21565b925050819055508273ffffffffffffffffffffffffffffffffffffffff168473ffffffffffffffffffffffffffffffffffffffff167fddf252ad1be2c89b69c2b068fc378daa952ba7f163c4a11628f55a4df523b3ef84604051610a839190610c7f565b60405180910390a3610a96848484610aa1565b50505050565b505050565b505050565b600081519050919050565b600082825260208201905092915050565b60005b83811015610ae0578082015181840152602081019050610ac5565b83811115610aef576000848401525b50505050565b6000601f19601f8301169050919050565b6000610b1182610aa6565b610b1b8185610ab1565b9350610b2b818560208601610ac2565b610b3481610af5565b840191505092915050565b60006020820190508181036000830152610b598184610b06565b905092915050565b600080fd5b600073ffffffffffffffffffffffffffffffffffffffff82169050919050565b6000610b9182610b66565b9050919050565b610ba181610b86565b8114610bac57600080fd5b50565b600081359050610bbe81610b98565b92915050565b6000819050919050565b610bd781610bc4565b8114610be257600080fd5b50565b600081359050610bf481610bce565b92915050565b60008060408385031215610c1157610c10610b61565b5b6000610c1f85828601610baf565b9250506020610c3085828601610be5565b9150509250929050565b60008115159050919050565b610c4f81610c3a565b82525050565b6000602082019050610c6a6000830184610c46565b92915050565b610c7981610bc4565b82525050565b6000602082019050610c946000830184610c70565b92915050565b600080600060608486031215610cb357610cb2610b61565b5b6000610cc186828701610baf565b9350506020610cd286828701610baf565b9250506040610ce386828701610be5565b9150509250925092565b600060ff82169050919050565b610d0381610ced565b82525050565b6000602082019050610d1e6000830184610cfa565b92915050565b600060208284031215610d3a57610d39610b61565b5b6000610d4884828501610baf565b91505092915050565b60008060408385031215610d6857610d67610b61565b5b6000610d7685828601610baf565b9250506020610d8785828601610baf565b9150509250929050565b7f4e487b7100000000000000000000000000000000000000000000000000000000600052602260045260246000fd5b60006002820490506001821680610dd857607f821691505b60208210811415610dec57610deb610d91565b5b50919050565b7f4e487b7100000000000000000000000000000000000000000000000000000000600052601160045260246000fd5b6000610e2c82610bc4565b9150610e3783610bc4565b9250827fffffffffffffffffffffffffffffffffffffffffffffffffffffffffffffffff03821115610e6c57610e6b610df2565b5b828201905092915050565b7f45524332303a2064656372656173656420616c6c6f77616e63652062656c6f7760008201527f207a65726f000000000000000000000000000000000000000000000000000000602082015250565b6000610ed3602583610ab1565b9150610ede82610e77565b604082019050919050565b60006020820190508181036000830152610f0281610ec6565b9050919050565b7f45524332303a20617070726f76652066726f6d20746865207a65726f2061646460008201527f7265737300000000000000000000000000000000000000000000000000000000602082015250565b6000610f65602483610ab1565b9150610f7082610f09565b604082019050919050565b60006020820190508181036000830152610f9481610f58565b9050919050565b7f45524332303a20617070726f766520746f20746865207a65726f20616464726560008201527f7373000000000000000000000000000000000000000000000000000000000000602082015250565b6000610ff7602283610ab1565b915061100282610f9b565b604082019050919050565b6000602082019050818103600083015261102681610fea565b9050919050565b7f45524332303a20696e73756666696369656e7420616c6c6f77616e6365000000600082015250565b6000611063601d83610ab1565b915061106e8261102d565b602082019050919050565b6000602082019050818103600083015261109281611056565b9050919050565b7f45524332303a207472616e736665722066726f6d20746865207a65726f20616460008201527f6472657373000000000000000000000000000000000000000000000000000000602082015250565b60006110f5602583610ab1565b915061110082611099565b604082019050919050565b60006020820190508181036000830152611124816110e8565b9050919050565b7f45524332303a207472616e7366657220746f20746865207a65726f206164647260008201527f6573730000000000000000000000000000000000000000000000000000000000602082015250565b6000611187602383610ab1565b91506111928261112b565b604082019050919050565b600060208201905081810360008301526111b68161117a565b9050919050565b7f45524332303a207472616e7366657220616d6f756e742065786365656473206260008201527f616c616e63650000000000000000000000000000000000000000000000000000602082015250565b6000611219602683610ab1565b9150611224826111bd565b604082019050919050565b600060208201905081810360008301526112488161120c565b905091905056fea2646970667358221220f8e7daa64ffe528b2979fdb735c84fa2050a1dabd837c3ccd82edd359ed43a6364736f6c63430008090033",
  "immutableReferences": {},
  "source": "// SPDX-License-Identifier: MIT\npragma solidity ^0.8.9;\n\n/// Library imports\nimport \"@openzeppelin/contracts/access/Ownable.sol\";\n\n/// Local imports\nimport \"./FastToken.sol\";\n\ncontract Distributer is Ownable {\n\n    uint256 public foundersTotalSupply;\n    uint256 public employeesTotalSupply;\n    uint256 public soldTokensTotalSupply;\n    FastToken public fastToken;\n    \n    constructor() { \n        fastToken = new FastToken();\n        foundersTotalSupply = 400000 * (10 ** 18);\n        employeesTotalSupply = 200000 * (10 ** 18);\n        soldTokensTotalSupply = 400000 * (10 ** 18);\n        require(fastToken.totalSupply() == (foundersTotalSupply + employeesTotalSupply + soldTokensTotalSupply), \"Does not match total supply\");\n    }\n  \n    mapping(address => Owners) public owners;\n     \n    enum OwnerType { Founder, Employee }\n\n    struct Owners {\n        OwnerType ownerType;\n        uint256 totalAmount; \n        uint256 claimed;\n        uint256 allocationTime;\n    }\n\n   function addFounder(address founder_, uint256 amount_) public onlyOwner {\n\n        Owners storage owner = owners[founder_];\n        require(0 == owner.totalAmount , \"On founder address Founder already exists\");\n        require(foundersTotalSupply >= amount_, \"Can not add a new founder because the tokens are exhausted\");\n        owner.ownerType = OwnerType.Founder;\n        owner.totalAmount = amount_;\n        owner.claimed = (amount_ / 5);\n        owner.allocationTime = (block.timestamp);\n        \n        foundersTotalSupply -= amount_;\n        require(fastToken.transfer(founder_, amount_ / 5), \"Cannot transfer tokens\");\n    }\n\n    function addEmployee(address employee_, uint256 amount_) public onlyOwner {\n\n        Owners storage owner = owners[employee_];\n        require(0 == owners[employee_].totalAmount, \"On employee address employee already exists\");\n        require(employeesTotalSupply >= amount_, \"Can not add a new employee because the tokens are spended\");\n        owner.ownerType = OwnerType.Employee;\n        owner.totalAmount = amount_;\n        owner.claimed = (amount_ / 10);\n        owner.allocationTime = (block.timestamp);\n        \n        employeesTotalSupply -= amount_;\n        require(fastToken.transfer(employee_, amount_ / 10), \"Cannot transfer tokens\");\n    }\n\n    function soldTokensManagement(address buyer_, uint256 amount_) public onlyOwner {\n\n        require(amount_ <= soldTokensTotalSupply, \"Should not exceed the total balance of tokens sold\");\n        require(fastToken.transfer(buyer_, amount_), \"Cannot transfer tokens\");\n        soldTokensTotalSupply -= amount_;\n    }\n\n    function claim() public {\n\n        Owners storage user = owners[msg.sender];\n        require(0 < user.totalAmount, \"You can not accsess this information\");\n        require(user.totalAmount != user.claimed, \"Your total amount is exhausted\");\n        uint256 month = 0;\n        uint256 ta = 0;\n        if (OwnerType.Employee == user.ownerType) {\n\n            require((user.allocationTime + 180 days) < block.timestamp, \"Your account is still frozen\");\n            month = (block.timestamp - (user.allocationTime + 180 days)) / 30 days + 1;\n            ta = month * user.totalAmount / 10;\n        } else {\n\n            require((user.allocationTime + 730 days) < block.timestamp, \"Your account is still frozen\");\n            month = (block.timestamp - (user.allocationTime + 730 days)) / 30 days + 1;\n            ta = month * user.totalAmount / 5;\n        }\n        require(ta != user.claimed, \"You already use your amount balance for this month\");\n        require(fastToken.transfer(msg.sender, (ta - user.claimed)), \"Cannot transfer tokens\");\n        user.claimed = ta;\n    }\n}\n",
  "sourcePath": "/home/karen/Distribution contract/contracts/Distributer.sol",
  "compiler": {
    "name": "solc",
    "version": "0.8.9+commit.e5eed63a.Emscripten.clang"
  },
  "schemaVersion": "3.4.7",
  "updatedAt": "2022-06-10T08:02:45.219Z",
  "devdoc": {
    "kind": "dev",
    "methods": {
      "owner()": {
        "details": "Returns the address of the current owner."
      },
      "renounceOwnership()": {
        "details": "Leaves the contract without owner. It will not be possible to call `onlyOwner` functions anymore. Can only be called by the current owner. NOTE: Renouncing ownership will leave the contract without an owner, thereby removing any functionality that is only available to the owner."
      },
      "transferOwnership(address)": {
        "details": "Transfers ownership of the contract to a new account (`newOwner`). Can only be called by the current owner."
      }
    },
    "version": 1
  },
  "userdoc": {
    "kind": "user",
    "methods": {},
    "version": 1
  }
}