{
  "contractName": "Employee",
  "abi": [
    {
      "inputs": [
        {
          "internalType": "uint256",
          "name": "",
          "type": "uint256"
        }
      ],
      "name": "employees",
      "outputs": [
        {
          "internalType": "enum Employee.EmployeeStatus",
          "name": "status",
          "type": "uint8"
        },
        {
          "internalType": "address",
          "name": "seller",
          "type": "address"
        },
        {
          "internalType": "address",
          "name": "token",
          "type": "address"
        },
        {
          "internalType": "uint256",
          "name": "tokenId",
          "type": "uint256"
        },
        {
          "internalType": "uint256",
          "name": "price",
          "type": "uint256"
        },
        {
          "internalType": "uint256",
          "name": "timeToUse",
          "type": "uint256"
        }
      ],
      "stateMutability": "view",
      "type": "function"
    },
    {
      "inputs": [
        {
          "internalType": "uint256",
          "name": "employeId",
          "type": "uint256"
        }
      ],
      "name": "getEmployee",
      "outputs": [
        {
          "components": [
            {
              "internalType": "enum Employee.EmployeeStatus",
              "name": "status",
              "type": "uint8"
            },
            {
              "internalType": "address",
              "name": "seller",
              "type": "address"
            },
            {
              "internalType": "address",
              "name": "token",
              "type": "address"
            },
            {
              "internalType": "uint256",
              "name": "tokenId",
              "type": "uint256"
            },
            {
              "internalType": "uint256",
              "name": "price",
              "type": "uint256"
            },
            {
              "internalType": "uint256",
              "name": "timeToUse",
              "type": "uint256"
            }
          ],
          "internalType": "struct Employee.Employees",
          "name": "",
          "type": "tuple"
        }
      ],
      "stateMutability": "view",
      "type": "function"
    },
    {
      "inputs": [
        {
          "internalType": "address",
          "name": "token",
          "type": "address"
        },
        {
          "internalType": "uint256",
          "name": "tokenId",
          "type": "uint256"
        },
        {
          "internalType": "uint256",
          "name": "price",
          "type": "uint256"
        }
      ],
      "name": "setEmployee",
      "outputs": [
        {
          "internalType": "address",
          "name": "",
          "type": "address"
        }
      ],
      "stateMutability": "nonpayable",
      "type": "function"
    }
  ],
  "bytecode": "0x6080604052600060015534801561001557600080fd5b506108ab806100256000396000f3fe608060405234801561001057600080fd5b506004361061005e576000357c0100000000000000000000000000000000000000000000000000000000900480634739326b1461006357806377a2741d14610098578063bca9a5c5146100c8575b600080fd5b61007d600480360381019061007891906104f5565b6100f8565b60405161008f969594939291906105e9565b60405180910390f35b6100b260048036038101906100ad9190610676565b610181565b6040516100bf91906106c9565b60405180910390f35b6100e260048036038101906100dd91906104f5565b610315565b6040516100ef919061078c565b60405180910390f35b60006020528060005260406000206000915090508060000160009054906101000a900460ff16908060000160019054906101000a900473ffffffffffffffffffffffffffffffffffffffff16908060010160009054906101000a900473ffffffffffffffffffffffffffffffffffffffff16908060020154908060030154908060040154905086565b6000806040518060c001604052806003808111156101a2576101a1610522565b5b81526020013373ffffffffffffffffffffffffffffffffffffffff1681526020018673ffffffffffffffffffffffffffffffffffffffff1681526020018581526020018481526020016301e13380426101fb91906107d6565b815250905060016000815461020f9061082c565b9190508190555080600080600154815260200190815260200160002060008201518160000160006101000a81548160ff0219169083600381111561025657610255610522565b5b021790555060208201518160000160016101000a81548173ffffffffffffffffffffffffffffffffffffffff021916908373ffffffffffffffffffffffffffffffffffffffff16021790555060408201518160010160006101000a81548173ffffffffffffffffffffffffffffffffffffffff021916908373ffffffffffffffffffffffffffffffffffffffff160217905550606082015181600201556080820151816003015560a08201518160040155905050849150509392505050565b61031d610446565b6000808381526020019081526020016000206040518060c00160405290816000820160009054906101000a900460ff16600381111561035f5761035e610522565b5b600381111561037157610370610522565b5b81526020016000820160019054906101000a900473ffffffffffffffffffffffffffffffffffffffff1673ffffffffffffffffffffffffffffffffffffffff1673ffffffffffffffffffffffffffffffffffffffff1681526020016001820160009054906101000a900473ffffffffffffffffffffffffffffffffffffffff1673ffffffffffffffffffffffffffffffffffffffff1673ffffffffffffffffffffffffffffffffffffffff16815260200160028201548152602001600382015481526020016004820154815250509050919050565b6040518060c001604052806000600381111561046557610464610522565b5b8152602001600073ffffffffffffffffffffffffffffffffffffffff168152602001600073ffffffffffffffffffffffffffffffffffffffff1681526020016000815260200160008152602001600081525090565b600080fd5b6000819050919050565b6104d2816104bf565b81146104dd57600080fd5b50565b6000813590506104ef816104c9565b92915050565b60006020828403121561050b5761050a6104ba565b5b6000610519848285016104e0565b91505092915050565b7f4e487b7100000000000000000000000000000000000000000000000000000000600052602160045260246000fd5b6004811061056257610561610522565b5b50565b600081905061057382610551565b919050565b600061058382610565565b9050919050565b61059381610578565b82525050565b600073ffffffffffffffffffffffffffffffffffffffff82169050919050565b60006105c482610599565b9050919050565b6105d4816105b9565b82525050565b6105e3816104bf565b82525050565b600060c0820190506105fe600083018961058a565b61060b60208301886105cb565b61061860408301876105cb565b61062560608301866105da565b61063260808301856105da565b61063f60a08301846105da565b979650505050505050565b610653816105b9565b811461065e57600080fd5b50565b6000813590506106708161064a565b92915050565b60008060006060848603121561068f5761068e6104ba565b5b600061069d86828701610661565b93505060206106ae868287016104e0565b92505060406106bf868287016104e0565b9150509250925092565b60006020820190506106de60008301846105cb565b92915050565b6106ed81610578565b82525050565b6106fc816105b9565b82525050565b61070b816104bf565b82525050565b60c08201600082015161072760008501826106e4565b50602082015161073a60208501826106f3565b50604082015161074d60408501826106f3565b5060608201516107606060850182610702565b5060808201516107736080850182610702565b5060a082015161078660a0850182610702565b50505050565b600060c0820190506107a16000830184610711565b92915050565b7f4e487b7100000000000000000000000000000000000000000000000000000000600052601160045260246000fd5b60006107e1826104bf565b91506107ec836104bf565b9250827fffffffffffffffffffffffffffffffffffffffffffffffffffffffffffffffff03821115610821576108206107a7565b5b828201905092915050565b6000610837826104bf565b91507fffffffffffffffffffffffffffffffffffffffffffffffffffffffffffffffff82141561086a576108696107a7565b5b60018201905091905056fea2646970667358221220698eef24f94936f24a567d1004f7414119707bc7fb42032a8b86f15fa3e3a8ea64736f6c63430008090033",
  "immutableReferences": {},
  "source": "// SPDX-License-Identifier: MIT\npragma solidity ^0.8.9;\n\n/// Library imports\nimport \"@openzeppelin/contracts/token/ERC20/ERC20.sol\";\n\ncontract Employee {\n\n    enum EmployeeStatus {\n\t\tActive,\n\t\tSold,\n\t\tCancelled,\n        Frozen\n\t}\n\n    struct Employees {\n        EmployeeStatus status;\n        address seller;\n        address token;\n        uint256 tokenId;\n        uint256 price;\n        uint256 timeToUse;\n    }\n\n    mapping(uint256 => Employees) public employees;\n    uint256 private employeesId = 0;\n\n    function getEmployee(uint256 employeId) public view returns (Employees memory)  {\n        return employees[employeId];\n    }\n\n    function setEmployee(address token, uint tokenId, uint price) external returns (address) {\n        Employees memory employee = Employees(\n            EmployeeStatus.Frozen,\n            msg.sender,\n            token,\n            tokenId,\n            price,\n            (block.timestamp + (365 days))\n        );\n\n        ++employeesId;\n        employees[employeesId] = employee;\n        return token;\n    }  \n}",
  "sourcePath": "/home/karen/distribution contract/contracts/Employee.sol",
  "compiler": {
    "name": "solc",
    "version": "0.8.9+commit.e5eed63a.Emscripten.clang"
  },
  "schemaVersion": "3.4.7",
  "updatedAt": "2022-05-25T12:59:18.835Z",
  "devdoc": {
    "kind": "dev",
    "methods": {},
    "version": 1
  },
  "userdoc": {
    "kind": "user",
    "methods": {},
    "version": 1
  }
}