{
  "contractName": "Founder",
  "abi": [
    {
      "inputs": [
        {
          "internalType": "uint256",
          "name": "",
          "type": "uint256"
        }
      ],
      "name": "founders",
      "outputs": [
        {
          "internalType": "enum Founder.FounderStatus",
          "name": "status",
          "type": "uint8"
        },
        {
          "internalType": "address",
          "name": "seller",
          "type": "address"
        },
        {
          "internalType": "address",
          "name": "token",
          "type": "address"
        },
        {
          "internalType": "uint256",
          "name": "tokenId",
          "type": "uint256"
        },
        {
          "internalType": "uint256",
          "name": "price",
          "type": "uint256"
        },
        {
          "internalType": "uint256",
          "name": "timeToUse",
          "type": "uint256"
        }
      ],
      "stateMutability": "view",
      "type": "function"
    },
    {
      "inputs": [
        {
          "internalType": "uint256",
          "name": "_foundersId",
          "type": "uint256"
        }
      ],
      "name": "getFounder",
      "outputs": [
        {
          "components": [
            {
              "internalType": "enum Founder.FounderStatus",
              "name": "status",
              "type": "uint8"
            },
            {
              "internalType": "address",
              "name": "seller",
              "type": "address"
            },
            {
              "internalType": "address",
              "name": "token",
              "type": "address"
            },
            {
              "internalType": "uint256",
              "name": "tokenId",
              "type": "uint256"
            },
            {
              "internalType": "uint256",
              "name": "price",
              "type": "uint256"
            },
            {
              "internalType": "uint256",
              "name": "timeToUse",
              "type": "uint256"
            }
          ],
          "internalType": "struct Founder.Founders",
          "name": "",
          "type": "tuple"
        }
      ],
      "stateMutability": "view",
      "type": "function"
    },
    {
      "inputs": [
        {
          "internalType": "address",
          "name": "token",
          "type": "address"
        },
        {
          "internalType": "uint256",
          "name": "tokenId",
          "type": "uint256"
        },
        {
          "internalType": "uint256",
          "name": "price",
          "type": "uint256"
        }
      ],
      "name": "setFounder",
      "outputs": [
        {
          "internalType": "address",
          "name": "",
          "type": "address"
        }
      ],
      "stateMutability": "nonpayable",
      "type": "function"
    }
  ],
  "bytecode": "0x6080604052600060015534801561001557600080fd5b506108aa806100256000396000f3fe608060405234801561001057600080fd5b506004361061005e576000357c0100000000000000000000000000000000000000000000000000000000900480633bcb43f3146100635780635e93443514610093578063d8e75f62146100c3575b600080fd5b61007d600480360381019061007891906104f4565b6100f8565b60405161008a9190610663565b60405180910390f35b6100ad60048036038101906100a891906106aa565b610229565b6040516100ba919061070c565b60405180910390f35b6100dd60048036038101906100d891906104f4565b6103bc565b6040516100ef96959493929190610745565b60405180910390f35b610100610445565b6000808381526020019081526020016000206040518060c00160405290816000820160009054906101000a900460ff16600381111561014257610141610521565b5b600381111561015457610153610521565b5b81526020016000820160019054906101000a900473ffffffffffffffffffffffffffffffffffffffff1673ffffffffffffffffffffffffffffffffffffffff1673ffffffffffffffffffffffffffffffffffffffff1681526020016001820160009054906101000a900473ffffffffffffffffffffffffffffffffffffffff1673ffffffffffffffffffffffffffffffffffffffff1673ffffffffffffffffffffffffffffffffffffffff16815260200160028201548152602001600382015481526020016004820154815250509050919050565b6000806040518060c0016040528060038081111561024a57610249610521565b5b81526020013373ffffffffffffffffffffffffffffffffffffffff1681526020018673ffffffffffffffffffffffffffffffffffffffff16815260200185815260200184815260200162f099c0426102a291906107d5565b81525090506001600081546102b69061082b565b9190508190555080600080600154815260200190815260200160002060008201518160000160006101000a81548160ff021916908360038111156102fd576102fc610521565b5b021790555060208201518160000160016101000a81548173ffffffffffffffffffffffffffffffffffffffff021916908373ffffffffffffffffffffffffffffffffffffffff16021790555060408201518160010160006101000a81548173ffffffffffffffffffffffffffffffffffffffff021916908373ffffffffffffffffffffffffffffffffffffffff160217905550606082015181600201556080820151816003015560a08201518160040155905050849150509392505050565b60006020528060005260406000206000915090508060000160009054906101000a900460ff16908060000160019054906101000a900473ffffffffffffffffffffffffffffffffffffffff16908060010160009054906101000a900473ffffffffffffffffffffffffffffffffffffffff16908060020154908060030154908060040154905086565b6040518060c001604052806000600381111561046457610463610521565b5b8152602001600073ffffffffffffffffffffffffffffffffffffffff168152602001600073ffffffffffffffffffffffffffffffffffffffff1681526020016000815260200160008152602001600081525090565b600080fd5b6000819050919050565b6104d1816104be565b81146104dc57600080fd5b50565b6000813590506104ee816104c8565b92915050565b60006020828403121561050a576105096104b9565b5b6000610518848285016104df565b91505092915050565b7f4e487b7100000000000000000000000000000000000000000000000000000000600052602160045260246000fd5b6004811061056157610560610521565b5b50565b600081905061057282610550565b919050565b600061058282610564565b9050919050565b61059281610577565b82525050565b600073ffffffffffffffffffffffffffffffffffffffff82169050919050565b60006105c382610598565b9050919050565b6105d3816105b8565b82525050565b6105e2816104be565b82525050565b60c0820160008201516105fe6000850182610589565b50602082015161061160208501826105ca565b50604082015161062460408501826105ca565b50606082015161063760608501826105d9565b50608082015161064a60808501826105d9565b5060a082015161065d60a08501826105d9565b50505050565b600060c08201905061067860008301846105e8565b92915050565b610687816105b8565b811461069257600080fd5b50565b6000813590506106a48161067e565b92915050565b6000806000606084860312156106c3576106c26104b9565b5b60006106d186828701610695565b93505060206106e2868287016104df565b92505060406106f3868287016104df565b9150509250925092565b610706816105b8565b82525050565b600060208201905061072160008301846106fd565b92915050565b61073081610577565b82525050565b61073f816104be565b82525050565b600060c08201905061075a6000830189610727565b61076760208301886106fd565b61077460408301876106fd565b6107816060830186610736565b61078e6080830185610736565b61079b60a0830184610736565b979650505050505050565b7f4e487b7100000000000000000000000000000000000000000000000000000000600052601160045260246000fd5b60006107e0826104be565b91506107eb836104be565b9250827fffffffffffffffffffffffffffffffffffffffffffffffffffffffffffffffff038211156108205761081f6107a6565b5b828201905092915050565b6000610836826104be565b91507fffffffffffffffffffffffffffffffffffffffffffffffffffffffffffffffff821415610869576108686107a6565b5b60018201905091905056fea26469706673582212201fbe7da96a974c75244204ebfa1e224214b8726bf7fe4e02fdbc842b3c39a6cf64736f6c63430008090033",
  "immutableReferences": {},
  "source": "// SPDX-License-Identifier: MIT\npragma solidity ^0.8.9;\n\n/// Library imports\nimport \"@openzeppelin/contracts/token/ERC20/ERC20.sol\";\n\ncontract Founder {\n\n    enum FounderStatus {\n\t\tActive,\n\t\tSold,\n\t\tCancelled,\n        Frozen\n\t}\n\n    struct Founders {\n        FounderStatus status;\n        address seller;\n        address token;\n        uint256 tokenId;\n        uint256 price;\n        uint256 timeToUse;\n    }\n\n    mapping(uint256 => Founders) public founders;\n    uint256 private foundersId = 0;\n\n    function getFounder(uint256 _foundersId) public view returns (Founders memory)  {\n        return founders[_foundersId];\n    }\n\n    function setFounder(address token, uint tokenId, uint price) external returns (address) {\n        Founders memory founder = Founders(\n            FounderStatus.Frozen,\n            msg.sender,\n            token,\n            tokenId,\n            price,\n            (block.timestamp + (365 days) / 2)\n        );\n\n        ++foundersId;\n        founders[foundersId] = founder;\n        return token;\n    }  \n}",
  "sourcePath": "/home/karen/distribution contract/contracts/Founder.sol",
  "compiler": {
    "name": "solc",
    "version": "0.8.9+commit.e5eed63a.Emscripten.clang"
  },
  "schemaVersion": "3.4.7",
  "updatedAt": "2022-05-25T12:59:18.846Z",
  "devdoc": {
    "kind": "dev",
    "methods": {},
    "version": 1
  },
  "userdoc": {
    "kind": "user",
    "methods": {},
    "version": 1
  }
}